:0A000000020FBFD20232283029009F
:10000B00020003CAB8C0D1309808C29874647AB39E
:07001B00001FD0D1DAB8325A
:1000230002000ECA797F707F017E770026C2AF750A
:10003300C78075F52375C5017CB1F5F67CB2F5C3B0
:100043007CB3F5C475C65A75C6A500000000E5C2A9
:100053007A7BB00B0C0BF47D371B347D7378D9128C
:070063001015D2AFDA79227B
:10006B00020E47CAF8A9D3A2A9C2A274017E34FE1C
:10007B000B7E24007E7A1BB0A9D7CEA9D6CEA9C5FC
:10008B00CEA9D4CEA9D3CEA9D2CE53CEFCC2C3D245
:10009B00C1D2CBD2CAA9D7CDA9D6CD120BD4120BB4
:1000AB00D47EF3004F4CFF780A7E1411197E0400A6
:1000BB00FF803ABEF001780A7E1411067E0400FF21
:1000CB00802BBEF002780A7E1410F47E0400FF80B1
:1000DB001CBEF003780A7E1410E27E0400FF800D34
:1000EB00BEF004780B7E1410CF7E0400FF1201DEED
:1000FB007E7300520A377A37004C7E1410BC7E0494
:10010B0000FF1201DE7E7300530A377A37004C7EF4
:10011B001410A77E0400FF1201DE7E73004E0A3717
:10012B007A37004C7E1410907E0400FF1201DEDA49
:10013B00F822E47E34FA717E24007E7A1BB074FFC1
:10014B007E14FA737E04007E7A0BB0743B7E14FA35
:10015B00867A0BB07E5400007E14FA757A0BA07E63
:10016B0014FA767A0BB0E47E14FA727A0BB07482BE
:0D017B007E14FA707A0BB074807A1BB022EB
:03018B00020F540C
:03019300020E88D1
:10019B0002019ECAB8CA1BC0D17E34FA3A7E240033
:1001AB007E7E1BB030E00A7E1BB054FE7A1BB0D2B1
:1001BB00097E1BB030E1087E1BB054FD7A1BB0D01A
:0601CB00D1DA1BDAB832A4
:0301D30002006BBC
:1001DB0002006B7F507EC400007ED4004E7E9401E3
:1001EB00EF0202374001227CEACA89CA5BCA6B1252
:1001FB001084DA6BDA5BDA897E9401EF7CAE2254E1
:10020B000F2490D43440D430F30CBEB0414007BE21
:10021B00B05B500224204CCC68021BC00B84D389EA
:10022B00944CCC680B742012022180F5CA3B6D886C
:10023B009F337CAE7E5BB00B5C7007C37D38DA3BC3
:10024B008994B42569C2F37E5BB00B5CA5F824D00E
:10025B00BEB00A501B7E500A20F60DAC5CA52D7C5F
:10026B00CB70034EF00180DDAC5DA52D7CDB80D522
:10027B0024CFBEB01AA5E850055E00DFD2F3900480
:10028B00ADA3E4936011BCB078F77414934CAB300E
:10029B00F6B34EF08080AEA3E4936010BCB078F759
:1002AB007413937C3B741D937C2B89147CB080134B
:1002BB00742012022120F205BEC00250F31B6D29DF
:1002CB00B6000112022102022C1B6E691600020BF2
:1002DB006A00BE08000078087E0400FF7E1400064A
:1002EB0020F21E4CCC681A7F10E47E1B804C886871
:1002FB00070B1C04BCBD78F2C2F6CA0B12040BDA56
:10030B000B7E0BB060C0CA0B120221DA0B0B0C4C2C
:10031B00DD68EE1BD078EA80ADD2F07E1010800342
:10032B007E10085EB05F800AD2F67E100A80057ED2
:10033B00100AC2F66D119F117E00201B6C7E6B7034
:10034B0030F6021A3720F1051B6C7E6B6030F60419
:10035B001A261A2430F0051B6D0B6A20A5EC33828C
:10036B00F692F6500A7CEA9F229F217F127CAE4CBC
:10037B0044780F7C457C567C676C772E00F878EFC1
:10038B0080122F117CB3337C3B9CB140047C3B0B24
:10039B0070A5D8EE7CB230E005DAB8C44C3BCA3855
:1003AB000B207E00207E3000BE18000078C1BE10EE
:1003BB0008780730F404C2F480B5CA287CB2BCBDFF
:1003CB0038027CBD12040BDA28BC2D500A1BD0E47A
:1003DB00CA2812020A80F07CB213DAB84004C4CAED
:1003EB00B8C4CA28BEF08040095CDD7805A5DA02E6
:1003FB0060065EF07F12020ADA28A5DADA02022C16
:10040B00BEF001680F30F402240220F50620F7033A
:10041B0030F6010420F229BCBC5025CAB87CBF13AE
:10042B00B0E67420501174307C8A5E80F06808123C
:10043B00044B5EA00F8003120221DAB8BCBC78DB40
:10044B0030F40F7430120221745830F302747812A6
:10045B00022130F605742D020221742B20F5F8745D
:10046B002020F7F3221B6C7E6BB010F1021B6C206B
:10047B00F60B30E704F404D2F27CCB800520E705C1
:10048B007CDB0202505EF07F80F81B6E6916000267
:10049B000B6A0030F0076D221B0A200B0D1B0A8024
:1004AB0002023B2D2B204C4248232E0053584F4425
:1004BB00494355502A4E000420800102001040D4BD
:1004CB00262B3333C03A2470950203030303020334
:1004DB0003040475E900A9D7BA75EA00120C3512AA
:1004EB00105D120F3612013D7401120DC2D2AF1204
:1004FB00006E120B0D12086E7E3400047A37002644
:10050B009F117E0800221200267E7300230A377D7E
:10051B00037E7300227C476C556D334D207E330078
:10052B00247C236C337D027E7300254D317A1F00B2
:10053B000CBE1CFFFF78069F117A1F000CA205E46E
:10054B00337CFB4CFB7837200868200C657E37002A
:10055B0050BE340000285B120CE4D20C74A07E3425
:10056B00FA717E24007E7A1BB07E1F00542E183C3D
:10057B00007A1F00547E143C00120A1C8034BEF01B
:10058B0001782F20082C300929C209120C947E1FE8
:10059B0000547E140100120A977E1F00542E18017E
:1005AB00007A1F005474A07E34FA397E24007E7AC0
:1005BB001BB0300288C2021206BC3006487E3700E0
:1005CB00120B347A370012BE3403E840386D337A9D
:1005DB00370012C2057E0F000C7E1F0054BF104067
:1005EB00089F117A1F0054C2077E34000A7A370025
:1005FB005012103A120B0D12013D7E1F00547E1447
:10060B003C00120A1C7EB3001FBEB000380302056B
:10061B0048147AB3001F6803020548120C947E1F1E
:10062B0000547E14FA8B7E04007E7E0B307C036CB0
:10063B00117E54FA3C7E44007E7E2B300A132D1023
:10064B00120A977E34FA8B7E24007E7E1B707C0709
:10065B006C117E34FA3C7E1B700A172D106D007ED8
:10066B001F00542F107A1F00547E1F00547A1F0056
:10067B000CE47E14FA397E04007E7A0BB07A4300C8
:10068B00227A5300237A6300247A7300259F111278
:10069B000F0F7E3400047A3700269F117E0800224C
:1006AB00120D7E7E1411D17E0400FF1201DE0205B5
:1006BB0048CA7930B2030207443003030207BD7EF8
:1006CB003700080B347A3700087E770008BE7403B6
:1006DB00E84059C200D2037E1411BB7E0400FF1206
:1006EB0001DEE47E34FA217E24007E7A1BB07E3458
:1006FB00FA227A1BB07E34FA397A1BB07E34FA3A7E
:10070B007A1BB0D2069F117A1F0054C2077E3400A9
:10071B000A7A37005012103A120B0D12013D7E1F50
:10072B0000547E143C00120A1C0207BDBE74001E4E
:10073B0050030207BDD200807930006EC200E47E08
:10074B0034FA217E24007E7A1BB07E34FA227A1B87
:10075B00B07E34FA397A1BB07E34FA3A7A1BB0C2C7
:10076B0005C2067E1F000C7E0F0054BF0140089F80
:10077B00007A0F0054C2077A1F004A7E1F00547A7A
:10078B001F00467E1411987E0400FF1201DE7E349A
:10079B00000A7A37005012103A120B0D12013D7EEF
:1007AB001F00547E143C00120A1C6D337A3700086C
:1007BB00C20330B30302084330040302086B7E37D5
:1007CB00000A0B347A37000A7E77000ABE7403E8FE
:1007DB00405CC201D204E47E34FA717E24007E7A3E
:1007EB001BB07E34FA727A1BB07E34FA217A1BB0BE
:1007FB007E34FA227A1BB07E34FA397A1BB07E34FF
:10080B00FA3A7A1BB0D205C2079F117A1F00547AAD
:10081B001F000C7E14117C7E0400FF1201DE120FF0
:10082B00717E1411657E0400FF1201DE8032BE74EE
:10083B00001E402CD201802830011DC201D2057E42
:10084B001F000C7A1F00547E14114A7E0400FF1205
:10085B0001DE120D34120B0D6D337A37000AC20410
:10086B00DA7922120F8C74E57E3478F0120FEE7465
:10087B00017E340100120FEE74027E340700120F5A
:10088B00EE74037E341030120FEE74046D33120FBE
:10089B00EE74087E340202120FEE74096D33120FE0
:1008AB00EE740A6D33120FEE740C6D33120FEE747F
:1008BB000D6D33120FEE740F6D33120FEE74106D4E
:1008CB0033120FEE74117E340007120FEE74126D9B
:1008DB0033120FEE74136D33120FEE74076D331268
:1008EB000FEE74107E341690120FEE74117E3402DC
:1008FB0027120FEE7E34000A120FD774127E3400CB
:10090B009D120FEE7E34000A120FD774137E34192A
:10091B0000120FEE7E34000A120FD774297E3400BA
:10092B0025120FEE742B7E34000D120FEE74307EF9
:10093B00340007120FEE74317E340303120FEE7482
:10094B00327E340003120FEE74357E340206120F22
:10095B00EE74367E340008120FEE74377E340406C4
:10096B00120FEE74387E340304120FEE74397E349A
:10097B000007120FEE743C7E340602120FEE743D2C
:10098B007E340008120FEE74506D33120FEE74515B
:10099B007E3400EF120FEE74526D33120FEE745360
:1009AB007E34013F120FEE74607E34A700120FEEFF
:1009BB0074617E340001120FEE746A6D33120FEE08
:1009CB0074806D33120FEE74816D33120FEE7482DF
:1009DB006D33120FEE74836D33120FEE74846D331F
:1009EB00120FEE74856D33120FEE74907E3400107F
:1009FB00120FEE74927E340600120FEE74077E34E3
:100A0B000133120FEEE47E340022120FEEE4020BE0
:100A1B0071CA797D717A1F00264D71686C7EB300A7
:100A2B004F60662008FD12106BBEB00038F8C2C0D4
:100A3B00740312104C7E3400277E2400007E1BB002
:100A4B0012104C7E3400287E2400007E1BB0121046
:100A5B004C7E3400297E2400007E1BB012104CD239
:100A6B00087D371B347E14FA237E04007E7A0B70CC
:100A7B000A167E34FA847E24007E7A1B307E34FA8A
:100A8B00217E1BB044407A1BB0DA7922CA797D7182
:100A9B007A1F00264D7168677EB3004F6061200896
:100AAB00FD121028C2C0740212104C7E3400277E37
:100ABB002400007E1BB012104C7E3400287E2400D4
:100ACB00007E1BB012104C7E3400297E2400007E69
:100ADB001BB012104CD2087D371B347E14FA237EC8
:100AEB0004007E7A0B700A167E34FA847E24007E14
:100AFB007A1B307E34FA217E1BB044407A1BB0DA6D
:100B0B007922E47E34FA217E24007E7A1BB07E1497
:100B1B00FA227E04007E7A0BB074E57E14FA207AFA
:100B2B000BB074FF7E14FA237A0BB0E47E14FA84B4
:100B3B007A0BB07E543C007E14FA257A0BA07E14FF
:100B4B00FA267A0BB07E5400007E14FA277A0BA09B
:100B5B007E14FA287A0BB074027E14FA297A0BB041
:100B6B0074817A1BB0227CAB74507AB3001D745223
:100B7B007AB3001E74227AB3001B7AB3001C1BA03D
:100B8B0068060BA07821801F7E3401407A37001451
:100B9B007E3400F07A37001674037E341038120F4F
:100BAB00EE74016D33801F7E3400F07A3700147EB3
:100BBB003401407A37001674037E341030120FEE76
:100BCB0074017E340100020FEEC2C074AB12104CE4
:100BDB00E412104CE412104CE412104C1210027A76
:100BEB00B300521210027AB3004E1210027AB30005
:100BFB0053D2C07EB30052B49D0B7EB30053B47F6F
:100C0B0004740180207EA3004EBEA01278047402EF
:100C1B008013BEA01378047403800ABEA017780457
:100C2B0074048001E47AB3004F227593007594002D
:100C3B0075910075920075950075960075B10075EC
:100C4B00B20075B30075B40075C90075CA0075CBD9
:100C5B000075CC0075E10075E2007594207593006A
:100C6B007596FF75950075B2C075B10C75B4A0750E
:100C7B00B30075CA0C75C9007E34FE137E24007E4A
:100C8B007E1BB0440C7A1BB02230071EC2077E14A9
:100C9B0000007E34FA3D7E24007E7A1B207E34FADF
:100CAB003E7A1B307E143C00801CD2077E143C0025
:100CBB007E34FA3D7E24007E7A1B207E34FA3E7A07
:100CCB001B307E1400007E34FA257E24007E7A1BB6
:100CDB00207E34FA267A1B302230071EC2077E1480
:100CEB003C007E34FA757E24007E7A1B207E34FA1B
:100CFB00767A1B307E140000801CD2077E14000015
:100D0B007E34FA757E24007E7A1B207E34FA767A46
:100D1B001B307E143C007E34FA277E24007E7A1B27
:100D2B00207E34FA287A1B3022E47E34FA397E2472
:100D3B00007E7A1BB074807E14FA387E04007E7AB3
:100D4B000BB0E47E14FA3A7A0BB074FF7E14FA3BC4
:100D5B007A0BB0E47E14FA8A7A0BB07E5400007ED4
:100D6B0014FA3D7A0BA07E14FA3E7A0BB074A17A7A
:100D7B001BB022CA797F707F017E770026C2AF75C8
:100D8B00C78075F52375C5027CB1F5F67CB2F5C34A
:100D9B007CB3F5C47E7BB0F5C275C65A75C6A5008B
:100DAB000000000B0C0BF47D371B347D7378D912CC
:100DBB001015D2AFDA79227C7BA5BF020CA9D08E9D
:100DCB007E34FFB5120FA78018C28EA9C08EA9C69C
:100DDB0089A9D68E5389CF758DFF758BB5C2ABD2D2
:100DEB008EE598543F4440F598D2ACD29C53A23F29
:100DFB00E5A2F5A2E47AB3001F22CA3B7D637A1702
:100E0B0000267D727A0700287450120FEE74517E03
:100E1B00370026120FEE74527D37120FEE74537E8D
:100E2B00370028120FEE74207D36120FEE74217DE1
:100E3B0037120FEE7422120EBBDA3B22CAB8CA1B52
:100E4B00CA0BC0D17E34FA727E24007E7E1BB0307A
:100E5B00E022C20C7E1700501B147A1700504D1164
:100E6B00780EE47E14FA717E04007E7A0BB0D28584
:100E7B00E47A1BB0D0D1DA0BDA1BDAB832CAB8CAB3
:100E8B001BC0D17E34FA327E24007E7E1BB030E054
:100E9B000A7E1BB054FE7A1BB0D20A7E1BB030E226
:100EAB00087E1BB054FB7A1BB0D0D1DA1BDAB832F8
:100EBB007E34FE547E24007E7A1BB0C28574847E01
:100ECB0034FE527A1BB07E34FE537E24007E7E1B92
:100EDB00B060F3E47A1BB0D285227E34FE547E24BC
:100EEB00007E7A1BB0C28574857E34FE527A1BB0AD
:100EFB007E34FE537E24007E7E1BB060F3E47A1BAF
:100F0B00B0D28522C2AF75C78075F52375C5037C3A
:100F1B00B5F5F67CB6F5C37CB7F5C475C65A75C680
:100F2B00A500000000121015D2AF22E47E34FE5053
:100F3B007E24007E7A1BB074247E34FE517A1BB063
:100F4B00E47E34FE537A1BB022CAB8CA1BC0D1E46C
:100F5B007E34FA227E24007E7A1BB0C208D2C0D027
:100F6B00D1DA1BDAB8327EB3004F6014121028C2EC
:100F7B00C074C712104CD2C012106BBEB00038F840
:100F8B0022D2857E340032120FD7C2C77E34009630
:100F9B00120FD7D2C77E340032020FD7A9C48EA945
:100FAB00C38EA9D28E0A56F5D67D53F5D7A9C2AFFB
:100FBB00A9D48E227584017E44041FE47A49B01BA8
:100FCB004478F97EF80057C2070204DE7D237E3495
:100FDB0016C97D131B147D3178F87D121B147D21EE
:100FEB0078EC22CA797D73120EBB0A5E120EE57C79
:100FFB00BF120EE5DA792275CFFFA9A7CDE43368CE
:10100B00F9A9D7CDA9D6CDE5CF2275C70075C500F7
:10101B0075C60075F6FF75C3FF75C4FF2212106B02
:10102B00BEB00038F8C2C0740612104CD2C0226D8C
:10103B00226D337E1700147E070016120E05C28533
:10104B00227AB1CFA9A7CDE43368F9A9D7CDA9D618
:10105B00CD22758E80758C77758A48D2A9D28C2259
:10106B00C2C0740512104C121002D2C0227AB19970
:10107B00A299E43368FAC29922CAF87CFB12107861
:10108B007CBFDAF8220D0A202020C9E8B1B8494408
:10109B00203D203078253032580D0A000D0A2020D3
:1010AB0020202020494432203D20307825303258F2
:1010BB0000D6C6D4ECC9CC494431203D203078252C
:1010CB0030325800BCECB2E2B5BD5732355131323B
:1010DB00384656210D0A00BCECB2E2B5BD5732358D
:1010EB005138304256210D0A00BCECB2E2B5BD5767
:1010FB003235583430434C210D0A00BCECB2E2B50A
:10110B00BD504D32354C56303430210D0A00CEB423
:10111B00BCECB2E2B5BD504D32354C563034302FAD
:10112B00573235583430434C2F57323551383042C3
:10113B00562F573235513132384656210D0A00524F
:10114B006561647920746F207265636569766520CB
:10115B00646174612E2E2E0D0A00466C617368203B
:10116B0043686970204572617365204F4B210D0AEE
:10117B0000537461727420466C6173682043686914
:10118B00702045726173652E2E2E0D0A004D61780D
:10119B005F61646472203D20256C752C20466C6168
:1011AB0073685F61646472203D20256C750D0A00C5
:1011BB004C434D206175746F20646973706C617959
:1011CB002E2E2E0D0A000D0A554152543120546912
:1011DB006D656F7574207265636569766520656EE4
:0511EB0064210D0A0063
:00000001FF
