:060000000201E1D2003212
:10000B0002000375E900A9D7BA75EA00759300756C
:10001B00940075910075920075950075960075B1F9
:10002B000075B20075B30075B40075C90075CA00D0
:10003B0075CB0075CC0075E10075E200758E80758F
:10004B008CA2758A40D2A9D28CE47E34FEEC7E243D
:10005B00007E7A1BB074307E14FEE87E04007E7A3C
:10006B000BB074017A1BB074077E34FEF27A1BB0AE
:10007B0074FF7E34FEF37A1BB074017E34FEB57AC6
:10008B001BB074037E34FEB67A1BB074807E34FED4
:10009B00FD7A1BB07E34FEE07E1BB044017A1BB0B0
:1000AB0074FA1201CB74FA1201CBE47E34FEB57EE6
:1000BB0024007E7A1BB0D2AF3000FDC2007EB300AD
:1000CB0008047AB30008BEB0324008E47AB30008E3
:1000DB0012010B7E73000ABE700028DC74017E34A3
:1000EB00FEB57E24007E7A1BB074FA1201CBE47E3F
:1000FB0034FEB57E24007E7A1BB07AB3000A80B83A
:10010B00CAF87EF3000C7580F0120207E58054F0FC
:10011B007AB3000C75800F1202077E71805E700F30
:10012B004E73000C7A73000C7EB3000C64FF7AB331
:10013B00000CBCBF68030201C57EF300097AB30053
:10014B00096072C2D54CFF7804D2D5801E7E730035
:10015B0009BC7F78167EB3000B047AB3000BBEB0DC
:10016B0014400874127AB3000BD2D530D54C7EB341
:10017B000009C4540F0A3B2E3401F77A71827A615D
:10018B0083E4937CFB4CFB68317EB30009540F0A6C
:10019B003B2E3401F77A71827A6183E493601B0AF8
:1001AB002F1B243E243E240A3B2D322E3400107A82
:1001BB0073000A8005E47AB3000B7580FFDAF8222E
:1001CB007CAB7E440FA07D341B347D4378F87CBA26
:1001DB00147CAB78ED227584017E44041FE47A49CC
:1001EB00B01B4478F97EF8002002000E00010200DB
:1001FB000300000004000000000000007EA03C7C17
:07020B00BA147CAB78F92264
:00000001FF
