:10000000020030E598543F4440F598A9D68EA9C027
:100010008E758BCC758DFFD28E227CAB7E440FA06B
:100020007D341B347D4378F87CBA147CAB78ED22A8
:100030007584017E44041FE47A49B01B4478F97E3C
:10004000F800330206F67AB199A299E43368FAC24D
:100050009922CAF87CFB1200467CBFDAF822010222
:0A0060000408102040802830290019
:10006B000204684D43552077616B6575702066728D
:10007B006F6D2050253032582E0D0A004D43552000
:09008B00536C6565702E0D0A002E
:03012B0002016569
:0301330002016561
:03013B0002016559
:0301430002016551
:03014B0002016549
:0301530002016541
:03015B0002016539
:10016300800002006B7F507EC400007ED400307E8E
:100173009401790201C14001227CEACA89CA5BCA9F
:100183006B120052DA6BDA5BDA897E9401797CAE0A
:1001930022540F2490D43440D430F30CBEB04140E9
:1001A30007BEB05B500224204CCC68021BC00B84FA
:1001B300D389944CCC680B74201201AB80F5CA3BF5
:1001C3006D889F337CAE7E5BB00B5C7007C37D385C
:1001D300DA3B8994B42569C2F37E5BB00B5CA5F866
:1001E30024D0BEB00A501B7E500A20F60DAC5CA58D
:1001F3002D7CCB70034EF00180DDAC5DA52D7CDB47
:1002030080D524CFBEB01AA5E850055E00DFD2F337
:10021300900437A3E4936011BCB078F77414934C43
:10022300AB30F6B34EF08080AEA3E4936010BCB065
:1002330078F77413937C3B741D937C2B89147CB0E7
:10024300801374201201AB20F205BEC00250F31BD1
:100253006D29B600011201AB0201B61B6E691600CF
:10026300020B6A00BE08000078087E0400FF7E14BB
:10027300006620F21E4CCC681A7F10E47E1B804C73
:100283008868070B1C04BCBD78F2C2F6CA0B1203C4
:1002930095DA0B7E0BB060C0CA0B1201ABDA0B0B05
:1002A3000C4CDD68EE1BD078EA80ADD2F07E1010E6
:1002B30080037E10085EB05F800AD2F67E100A804B
:1002C300057E100AC2F66D119F117E00201B6C7E05
:1002D3006B7030F6021A3720F1051B6C7E6B6030B1
:1002E300F6041A261A2430F0051B6D0B6A20A5ECC0
:1002F3003382F692F6500A7CEA9F229F217F127C7A
:10030300AE4C44780F7C457C567C676C772E00F8A6
:1003130078EF80122F117CB3337C3B9CB140047C7B
:100323003B0B70A5D8EE7CB230E005DAB8C44C3B89
:10033300CA380B207E00207E3000BE18000078C132
:10034300BE1008780730F404C2F480B5CA287CB222
:10035300BCBD38027CBD120395DA28BC2D500A1BA4
:10036300D0E4CA2812019480F07CB213DAB84004B6
:10037300C4CAB8C4CA28BEF08040095CDD7805A5AC
:10038300DA0260065EF07F120194DA28A5DADA0257
:1003930001B6BEF001680F30F402240220F50620F6
:1003A300F70330F6010420F229BCBC5025CAB87CFF
:1003B300BF13B0E67420501174307C8A5E80F068FD
:1003C300081203D55EA00F80031201ABDAB8BCBCE0
:1003D30078DB30F40F74301201AB745830F30274CD
:1003E300781201AB30F605742D0201AB742B20F5A6
:1003F300F8742020F7F3221B6C7E6BB010F1021B04
:100403006C20F60B30E704F404D2F27CCB80052099
:10041300E7057CDB0201DA5EF07F80F81B6E69166C
:1004230000020B6A0030F0076D221B0A200B0D1B24
:100433000A800201C52D2B204C4248232E0053581D
:100443004F44494355502A4E0004208001020010B6
:10045300405EB0B5BDBD4AC4AEFA1F02020202023D
:100463000202020304CA59CA1BC0D17E34FD107EA6
:1004730024007E7E1BA04CAA685BE47A1BB07CBA86
:1004830030E005E47AB300317CBA30E10674017AD6
:10049300B300317CBA30E20674027AB300317CBA1D
:1004A30030E30674037AB300317CBA30E406740493
:1004B3007AB300317CBA30E50674057AB300317C37
:1004C300BA30E60674067AB300317CBA30E70674B4
:1004D300077AB300317E34FD117E24007E7E1BA09B
:1004E3004CAA685CE47A1BB07CBA30E00674107ADC
:1004F300B300317CBA30E10674117AB300317CBAAF
:1005030030E20674127AB300317CBA30E306741316
:100513007AB300317CBA30E40674147AB300317CC8
:10052300BA30E50674157AB300317CBA30E6067446
:10053300167AB300317CBA30E70674177AB3003108
:100543007E34FD127E24007E7E1BA04CAA685CE4F0
:100553007A1BB07CBA30E00674207AB300317CBADF
:1005630030E10674217AB300317CBA30E20674229A
:100573007AB300317CBA30E30674237AB300317C5A
:10058300BA30E40674247AB300317CBA30E50674D9
:10059300257AB300317CBA30E60674267AB300318B
:1005A3007CBA30E70674277AB300317E34FD137EBC
:1005B30024007E7E1BA04CAA685CE47A1BB07CBA44
:1005C30030E00674307AB300317CBA30E10674311E
:1005D3007AB300317CBA30E20674327AB300317CEC
:1005E300BA30E30674337AB300317CBA30E406746C
:1005F300347AB300317CBA30E50674357AB300310E
:100603007CBA30E60674367AB300317CBA30E7063A
:1006130074377AB300317E34FD147E24007E7E1B52
:10062300A04CAA685CE47A1BB07CBA30E006744044
:100633007AB300317CBA30E10674417AB300317C7D
:10064300BA30E20674427AB300317CBA30E30674FE
:10065300437AB300317CBA30E40674447AB3003190
:100663007CBA30E50674457AB300317CBA30E606CD
:1006730074467AB300317CBA30E70674477AB30024
:10068300317E34FD157E24007E7E1BA04CAA685C5F
:10069300E47A1BB07CBA30E00674507AB300317C44
:1006A300BA30E10674517AB300317CBA30E2067491
:1006B300527AB300317CBA30E30674537AB3003113
:1006C3007CBA30E40674547AB300317CBA30E50660
:1006D30074557AB300317CBA30E60674567AB300A7
:1006E300317CBA30E70674577AB30031D0D1DA1BC4
:1006F300DA593275E900A9D7BA75EA00759300751E
:10070300940075910075920075950075960075B10A
:100713000075B20075B30075B40075C90075CA00E1
:1007230075CB0075CC0075E10075E200C2C0E47EB4
:1007330034FD237E24007E7A1BB07E34FD337A1B86
:10074300B0743C7E34FD037A1BB07E34FD437A1BC8
:10075300B0120003E47E34FD107E24007E7A1BB0C9
:100763007E34FD117A1BB07E34FD127A1BB07E34C9
:10077300FD137A1BB07E34FD147A1BB07E34FD1555
:100783007A1BB0D2AF746412001A7EA300300A3A07
:100793002E34005E7A71827A6183E49364FFF5807C
:1007A3007CBA047AB300307E730030BE700728052C
:1007B300E47AB300307E3700320B347A370032BE2E
:1007C30034001440C06D337A3700327580FF7E14D5
:1007D30000877E0400FF120168A9D1870000000092
:1007E3000000007E7300310A377A37002E7E140032
:0A07F3006E7E0400FF120168808B87
:00000001FF
