:10000000021A19A9D7BA75E90075EA001216D57E49
:100010003400027A3700707E1420FD7E0400FF7EDB
:1000200018000F121A89D2AF3000FD7E340003CAC7
:10003000397E3420F97E2400FF7E1400407E0400C7
:1000400001121D9D1BFD701E7E1420F27E0400FF18
:10005000120AB47E37000F7A3700927E1420DD7EBC
:100060000400FF121E097E340003CA397E3420D9F1
:100070007E2400FF7E1400407E040001121D9D1BA3
:10008000FD70397E18000F7A1F00907E1400407EAC
:100090000400017E3420D27E2400FF12010A7E1467
:1000A00020CB7E0400FF120AB47E37000F7A37009F
:1000B000927E1420B47E0400FF121E09121F5A0201
:1000C00000280220100220100220100219997F70CF
:1000D0007F517EC400007ED400947E9400E1020132
:1000E000594005E47A7BB0227A7BB00B7C227F708A
:1000F0007F517E6F00987E9400FD0201594005E417
:100100007A7BB0227A7BB00B7C227F707F517EC4D9
:1001100000007ED400947E94011D0205A4400122BB
:1001200010F7067E7BB00B7C221B7C22540F2490A0
:10013000D43440D430F30CBEB0414007BEB05B5065
:100140000224204CCC68021BC00B84D389944CCC75
:10015000680B742012014380F5CA3B6D889F337C85
:10016000AE7E5BB00B5C7007C37D38DA3B8994B41C
:100170002569C2F37E5BB00B5CA5F824D0BEB00A43
:10018000501B7E500A20F60DAC5CA52D7CCB700375
:100190004EF00180DDAC5DA52D7CDB80D524CFBE8B
:1001A000B01AA5E850055E00DFD2F390052EA3E457
:1001B000936011BCB078F77417934CAB30F6B34E24
:1001C000F08080AEA3E4936010BCB078F77416930F
:1001D0007C3B7423937C2B89147CB0801374201295
:1001E000014320F205BEC00250F31B6D29B6000189
:1001F00012014302014E1B6E691600020B6A00BE1B
:1002000008000078087E0400FF7E14203820F21ECB
:100210004CCC681A7F10E47E1B804C8868070B1C4E
:1002200004BCBD78F2C2F6CA0B12032DDA0B7E0BAA
:10023000B060C0CA0B120143DA0B0B0C4CDD68EE48
:100240001BD078EA80ADD2F07E101080037E1008BB
:100250005EB05F800AD2F67E100A80057E100AC268
:10026000F66D119F117E00201B6C7E6B7030F602C4
:100270001A3720F1051B6C7E6B6030F6041A261AC3
:100280002430F0051B6D0B6A20A5EC3382F692F644
:10029000500A7CEA9F229F217F127CAE4C44780F4B
:1002A0007C457C567C676C772E00F878EF80122FA7
:1002B000117CB3337C3B9CB140047C3B0B70A5D8D4
:1002C000EE7CB230E005DAB8C44C3BCA380B207E75
:1002D00000207E3000BE18000078C1BE10087807EC
:1002E00030F404C2F480B5CA287CB2BCBD38027CAC
:1002F000BD12032DDA28BC2D500A1BD0E4CA2812E7
:10030000012C80F07CB213DAB84004C4CAB8C4CA65
:1003100028BEF08040095CDD7805A5DA0260065E43
:10032000F07F12012CDA28A5DADA02014EBEF001C4
:10033000680F30F402240220F50620F70330F6019E
:100340000420F229BCBC5025CAB87CBF13B0E674A7
:1003500020501174307C8A5E80F0680812036D5E54
:10036000A00F8003120143DAB8BCBC78DB30F40F75
:100370007430120143745830F30274781201433020
:10038000F605742D020143742B20F5F8742020F734
:10039000F3221B6C7E6BB010F1021B6C20F60B304D
:1003A000E704F404D2F27CCB800520E7057CDB0275
:1003B00001725EF07F80F81B6E691600020B6A0006
:1003C00030F0076D221B0A200B0D1B0A8002015D15
:1003D000E46C22BE3007500B7F1F2D312E34FFF707
:1003E0007E39B0227CBF20E7A8742E4EF080020137
:1003F00043120517403D7CBD7003047CDB12091CD1
:100400007C3D4C3368101B307CBE20E4091203D0C5
:1004100070044C3378F07CBD7CD3BEA0FD481CBC7E
:10042000AB5818E49CBA2CB31801E47CDB0204B886
:10043000120517406E7CBD0412091C7AFBA07CAE2D
:100440007CBDA2F492F0C2F44002600104240512C3
:10045000032D7E30FF0B301203D0CA3812012C203E
:10046000F0044CDD68031203E4DA38BC3D78E6742E
:100470000E12012C742B7EFBA030F707742D6EA09A
:10048000FF0BA07AFBA01201437EA00A7EFBB08482
:100490007AFBA012012C7EFBB012012C9EF8000802
:1004A00002014ED2F27ED00002020D12051740F377
:1004B0007CBA2CBD0412091C7AFBA07CBA7CAE303D
:1004C000E701E40420F4044CDD6805D2F0C2F40432
:1004D0002CBD12032D6C337EFBB0601B20E7121481
:1004E0007AFBB01203D0CA3812012CDA380B3080F4
:1004F000E6047AFBB01B301203D0CA3812012C4C30
:10050000DD68071203E41BD080E19EF8000930F09B
:10051000031203E402014E7CEA7CAF10F7037ED0A5
:10052000067CFA1B6E693600020B6A200208642DF5
:100530002B204C4248232E0053584F4449435550DA
:100540002A4E464547000420800102001040F6482C
:100550004D5555E25C4692B7AB30F1010202020202
:10056000010202030304040360271B84D2F7D3892A
:100570009420F313691600020B6A007A0BB00B0C7F
:100580001B6A0079160002225CCC68061BC0780248
:10059000E422D3999460020B8422120592121FCA9E
:1005A00040F880C4CA3B6D886D776D667CAD7E5B1C
:1005B000B00B5C70070A3EC3DA3B8994B425557EC4
:1005C0005BB00B5C7C0B24D0BEB00A500B7E500A93
:1005D000AC5C2CB57CCB80E724CFBEB01A7CB0508D
:1005E000035E00DF900821A3E4936026BCB078F797
:1005F0007412937C3B7423937C2B8914D2F080BFBC
:10060000D2F180BBD2F380B75CEE78A97E34FFFFD5
:1006100080A57CB0121FCA500712059A60EA808A32
:100620007CFB120592BCBF68F560DD120568808511
:1006300020F3021B6E12059260CE5CCC78070BC0D3
:10064000800312059260071205711BC078F420F434
:100650000520F3020BE080C6D2F67F057E0B70A565
:10066000BF5E140B0C7E0B7010F605BE705D681833
:10067000BCB778EFD380407E0B700B0C10F605BE34
:10068000705D68F0BCB778EFC3C2F4802AD2F52061
:10069000F3021B6ED2F45CCC68020BC020F505128D
:1006A000059A6008120588700630F40D02060820CD
:1006B000F5A6C2F4121FCA5004120568E4120571AF
:1006C00070E230F5087E5BB00B5CB45DF802064E5C
:1006D0006CFF800D7EF01080087EF00880037EF0B5
:1006E0000AD2F45CCC68020BC012059A60BE1205F7
:1006F00092B42D04D2F28003B42B0812059A60AC98
:10070000120588BEF00A6838BEF0086833B4302994
:100710005CFF78037EF008C2F4120588BEB07868EA
:1007200003B4581C5CCC680C1BC07808D2F49F1131
:100730008056D2F07EF010800E5CFF78037EF00AC7
:100740009F1160441205689F11CA1B1205887C8B9B
:10075000DA1B6034BEB0614007BEB07B5002C2E518
:1007600024D05024BEB00A4007BEB011401A24F96C
:10077000BCBF50147D120A0FAD30AD102D216D009D
:100780000A1B2F10C2F480C17CB812056820F32C1C
:1007900020F40B0BE030F2069F009F017F101B6ED0
:1007A000691600020B6A0030F006793000027D32D3
:1007B00020F106397000017C767A0B700205AA5C84
:1007C000CC68020BC012059AD2F41205887003029D
:1007D00006089F11CA1BCA296CFF800ACA1BCA4996
:1007E000120592120588120568DA49DA1B7CDA7C58
:1007F000AFCA7B12095FDA7B7CFA7CAD5004C2F48D
:1008000080DA20F41320F3101B6E691600020B6AC5
:10081000001B0A207930000202064E7D386D22024C
:10082000079E4C4248535B58504F444943552A4E0B
:1008300046454700FC00BF8F8DD432D9DED030DE74
:10084000041BBFBFBF05060506060607060606060B
:100850000606080707074E614E002B494E46002D3D
:10086000494E46007D522D557CBE92E67CEB7CBA0B
:10087000601F0470287CB5C2E77E0400FF60067E1E
:10088000140856D3227E14085F40047E14085AD3FD
:1008900022DA099F22CA2BCA2BC3CA09220A0A7E5E
:1008A000144D10AD109E083AF09E10267CB5C2E79C
:1008B0007EA0567C9BA46E54FFFF2E54C511ACA99C
:1008C0002D15E4A539CAB8CA1B20E70A120A4BDA6B
:1008D0001B121925800AF404120A4BDA1B12192183
:1008E000DAA87CB5337CB4334E50806C4424822F1C
:1008F000111478FBDA497407BE400A40099E400A89
:10090000CA0201140BA0CA486C442F117F012F1199
:100910002F112F101478EFCA48CA49227F0F20E701
:100920003ABEB007400274070A0B2D109E1400094E
:100930007E19B02EB0FB501F4C116817E47A19B025
:100940001B147E19B0047A19B0B40A0BE47A19B0FA
:10095000A5D9ED0BA074017A19B0225EE0BF222068
:10096000F20CB42D04D2F2D322B42B02D32224D021
:10097000503EBEB00A503930F3137E200AAC290A2B
:100980000B2D01BE04003F50467C91D322D2F17F53
:10099000726D117E0441201219217F017D5F7C4B15
:1009A000E41219691219197F2730F0BB1B80D3227A
:1009B00020F322B4FE0720F01CD2F0D32224EB60F7
:1009C0000424E07010A2F292F0D2F3C2F2D322C358
:1009D0007E1CFFFF22E430F30B7CB930F202F404FA
:1009E000A2F092F230F1E82CB820D2E3A2E792F321
:1009F0005002F404B4260050D6CAA87F71120A4BE4
:100A00007F17DAA87DE520F305121921800312195A
:100A1000257D5E30F20312193FC3223F8000004162
:100A200020000042C80000447A0000461C400047F5
:100A3000C35000497424004B1896804CBEBC205A09
:100A40000E1BCA6753C21C749DC5AE7C7B600654E6
:100A50000768162323120A707CB75438680A7F107F
:100A6000120A6D1219217F01227CB7543803241C0D
:100A70006CAA2E540A1B7E4400FF0B2A0069120048
:100A80000222C2D57CB430E708B2D56E24FFFF0B3A
:100A9000247CB630E712B2D56E34FFFF0B348D32B2
:100AA0006E24FFFF0B2480028D3230D5066E34FF9A
:100AB000FF0B3422CA3B7F306D337A37006EE47A05
:100AC000B300727AB300739000C2691E00020BEA91
:100AD00000BE0CFFFF6803020B9C7A37006C7E346B
:100AE000000A7E17006C1A021A0012128E7AB300E6
:100AF00070B4FF097EB30072047AB300727E730093
:100B000072BE702040187E37006C1A261A249E1878
:100B1000001F9000C2793E00021BEA2080577EB37E
:100B20000070B4AA3D7E34000A7E17006C0B141AC4
:100B3000021A0012128E7AB300707E17006C1A022D
:100B40001A000A3B6D222F102E1800039000C27964
:100B50003E00021BEA200A3B2E3400037A3700666F
:100B600080137E37006C0B347A37006CBE34020081
:100B70005803020ADE7E37006CBE340200781D9FE7
:100B8000119000C2793E00021BEA207E3400017AF7
:100B900037009A7E34001F9F0012128E7E3BB0B445
:100BA00003028003020DEBE480306D337A37009A44
:100BB0007E3400147E1700661A021A009000C26983
:100BC0005E00020BEA409F207E5300710A156D0003
:100BD0002F0212128E7EB30071047AB300717E73FD
:100BE00000710A37BE37006648C07E3400AA7A37E3
:100BF000009A7E3400149000C2691E00020BEA00C5
:100C00007F200B2C795E00021BEA4012128EE47AE0
:100C1000B300706D3380237E37006C7E140005AD09
:100C2000137D212E2400CA7A51827A41837EEB50B3
:100C30002E5300707A5300700B347A37006C90009A
:100C4000C00BEA30BE37006C38CD7E7300707A730B
:100C5000009B7E3400149000C2691E00020BEA0063
:100C60007F200B2C795E00021BEA4012128E7E73ED
:100C700000700A272E2400037A2700660A176D00E9
:100C80009000C2693E00020BEA202F100B1EBE1816
:100C9000020008607E3400017A37009A7E34001F1B
:100CA0009F0012128E9F119000C2793E00021BEA33
:100CB000207E3400AA7A37009A7E3400149000C255
:100CC0009F007E280001795E00021BEA4012128E0E
:100CD0007E7300707A73009B7E3400149000C269AA
:100CE0001E00020BEA007F200B2C795E00021BEA3B
:100CF0004012128EE47AB300706D33020DB17E277C
:100D0000006C7E340005AD327D232E2400C67A515E
:100D1000827A4183691E00020BEA007A0F00982E46
:100D20003400CA7A71827A6183E00A3B7A3700968E
:100D30007E3400159000C2691E00020BEA001212F8
:100D40008EE480317EB300710A1B7E27006C7E34F6
:100D50000005AD327D032E0400C67A11827A01832C
:100D6000693E00020BEA202D317E1BA02EA30070ED
:100D70007AA30070047AB300717E27006C7E340081
:100D800005AD322E3400CA7A71827A6183E0BEB337
:100D9000007138B00A1B6D009000C2693E00020B62
:100DA000EA202F10793E00021BEA207E37006C0BF0
:100DB000347A37006C9000C00BEA30BE37006C28E4
:100DC00003020CFE7E7300707A73009B7E34001465
:100DD0009000C2691E00020BEA007F200B2C795E96
:100DE00000021BEA4012128E020F499000C2693EB7
:100DF00000027D139E1700667A17006E7E34000A8B
:100E00007D210B247A27006E1A021A0012128E7AA4
:100E1000B30070B4AA028003020F497E34000A7E38
:100E200017006E7D210B247A27006E1A021A001219
:100E3000128E7AB30071E47AB300737AB300706DE6
:100E400033802C7E34000A7EA300737CBA047AB30C
:100E500000730A1A2E17006E1A021A0012128E7CE4
:100E60007B2E7300707A7300707E37006C0B347ABF
:100E700037006C7E7300710A37BE37006C18C47E71
:100E800034000A7E5300730A152E17006E1A021AD8
:100E90000012128EBEB300706803020F497E730009
:100EA000710A372E3400037A370066E47AB3007390
:100EB0006D33020F36E4805B7E34000A7EA300733C
:100EC0007CBA047AB300730A1A2E17006E1A021A3B
:100ED0000012128E7EA300710A1A7E27006C7E34E7
:100EE0000005AD327D032E0400C67A11827A01839B
:100EF000693E00020BEA202D317A1BB07E27006686
:100F00009E2400037E7300730A37BD32583B7EB3C4
:100F10000071047AB300717E37006C7E140005AD59
:100F2000137D212E2400CA7A51827A4183E0BEB318
:100F3000007138840B347A37006C9000C00BEA30B3
:100F4000BE37006C2803020EB5DA3B22CA3B7EB3E3
:100F50000025BEB00178030211887E34FE017E2494
:100F6000007E7E1B707A7300727E34FE007E1B70E2
:100F70007A7300737E34FE787E1B307A330074E51A
:100F8000DD7AB30075E5AF7AB30077E5A87AB300F0
:100F900076A2AFE4337AB3007CC2AFA9D2EFE5D238
:100FA0007AB30078E5D37AB300797E1BB044017A36
:100FB0001BB07E14FE7A7E04007E7E0B307A3300F6
:100FC0007A7E14FE7B7E0B307A33007BA9C2EF7EE3
:100FD0001BB054FE7A1BB07EB30073540F6803023B
:100FE000118874807E34FE077E24007E7A1BB07EDA
:100FF00034FE077E24007E7E1BB030E0F274027E59
:1010000034FE017E24007E7A1BB07E34FE007E1BFF
:10101000B0440C7A1BB053DD0FA9C6AF74147E34F4
:10102000FE787A1BB0A9D5DD7E1BB054FE7A1BB0CA
:10103000E47E14FE7B7E04007E7A0BB07E14FE7A82
:101040007A0BB075D28075D300A9D7DD7E1BB04472
:10105000807A1BB0A932EFFC7E34FE787E24007EBD
:101060007E1BB0547E7A1BB0A9C7DD7E34FE7A7E2B
:101070001B606C777E14FE7B7E04007E7E0B500A24
:10108000754D736D66A9C2EF7EB300727006740170
:101090007AB300727F137CB41219757F717E43009E
:1010A000727CB41219697F017F171219257E141BF7
:1010B000007E0444371219211219637A1F00219F00
:1010C000337D373E343E3449130028490300267EE1
:1010D0001F0021E412197512191D1219467E147C85
:1010E000007E04489212192D50157D173E143E14AF
:1010F00049310028492100261219637A1F00210B6B
:101100003CBE38000F48BA7EB30078F5D27EB300FB
:1011100079F5D37E33007A7E34FE7A7E24007E7A9F
:101120001B307E33007B7E34FE7B7A1B307E3300A7
:10113000747E34FE787A1B307EB30075F5DD7E3325
:1011400000737E34FE007A1B307E3300727E34FEE4
:10115000017A1B307EB30077F5AF7EB30076F5A839
:101160007E73007C2E70FF92AF74017AB300257EEF
:101170001F0021E41219757E1424007E04497412A4
:1011800019251219637A71F5DA3B22CAF87EF30049
:10119000A27CBF5480B480167EB300A570307EB3AD
:1011A00000A4702A7E3700A8BE3400026803021231
:1011B000837CBF540F14681B14683B0BB168030297
:1011C00012837EB300A770067EB300A6601E0212D3
:1011D0008380197EB300B4B4040F7EB300A760030C
:1011E0000212837EB300A660030212837E34190DBF
:1011F0007E2400FF807D7EB300B4B404067EB3007D
:10120000A76002807E7E7300A67CA75EA00F1B7085
:1012100068362E707F68040B7078687E2400017C2D
:10122000BA60053E241478FB7E7300BC6C665C7566
:101230004D33680A7E34190F7E2400FF80357E34DA
:10124000190D7E2400FF802B7E2400017CBA6005EE
:101250003E241478FB7E7300BD6C665C754D33686C
:101260000A7E34190F7E2400FF80087E34190D7E1B
:101270002400FF7A1F00B87E3400027A3700B6805F
:101280000780001220108003121FF1DAF822CAF83A
:101290007A0F009E7DF37E34009C7E2400007D1F2B
:1012A0002E14FFF668331B14681D2E14FFF6681702
:1012B0002E14FFF768231B1468182E14000B781FD8
:1012C0001B347E1BF080121B3669D100020B1AC042
:1012D00080001B350B1AB0800A7EB400018004E444
:1012E00002136775C7807E24000A7D3F120A827C44
:1012F000B75403F5C56DEE80657D5E6D447E0F00CD
:101300009E2F20F5C4BEF4001F780A7D3E7C676CDA
:10131000773E3480027D3E6D222F107CB6F5C3757A
:10132000F600BEF4001478037AF1C2BEF40015781A
:10133000097F162D3E7E1BB0F5C275C65A75C6A52F
:1013400000000000BEF4000A78037EF1C2BEF40083
:101350000B7809E5C27F162D3E7A1BB00BE4BDBEAB
:10136000389775C7007CBFDAF822CA79740E7E7090
:1013700001121FDE7414121FB57CFB30E6087414D2
:101380007E7080121FDE7CBF20E0030214427E14B8
:1013900000407E0400017421121D637AB300AA7E0E
:1013A0001F00AE4D2378030214296CFF80737EB3B7
:1013B00000AB1A3B7E0F00AE2D317D207E1BA00AB4
:1013C0004F2E4400407A91827A81837EEBE0BCEA22
:1013D0007839047AB300AB7E7300AB1A372D317DB8
:1013E000207E1BB0703974146C77121FDE75F40008
:1013F00075DC00E47E34FE077E24007E7A1BB07E1E
:1014000034000A121F7275C76080FE7E1F00AE7E18
:101410001B70BCE7780474018001E47AB300AB0B65
:10142000F07E7300AABC7F3885D2007E3700AC4DB9
:1014300033680F7E3700AC993474146C77121FDE5A
:10144000C200DA7922CA3B7A3700987F307EB30037
:10145000B4B4040280030214EF6D337A37009B7E2C
:101460003413887A37009DA9C7AF740E7E700112BD
:101470001FDE7411121FB530E018A9D7AF7E3400FB
:101480000A121F227E37009D1B347A37009D685F49
:1014900080D57E270098BE24004008057E704080DD
:1014A000027C757A73009AA9C7AFC202740E7E706F
:1014B00001121FDE7F032E17009B7EB3009A7E7001
:1014C00001121FA0D202A9D7AF7E73009A0A277D0E
:1014D000322E37009B7A37009B7E3700989D327AF8
:1014E0003700987E73009ABE7040400302145FDAA2
:1014F0003B227EB300B4BEB00268207EB300A2706F
:101500001A7EB300A570147EB300A7700E7EB300E0
:10151000A670087E3700A84D3368030220107EB302
:1015200000A4B4015F74047AB300B4E47AB300BCDD
:101530007AB300BD740E7E7001121FDE74127E70CD
:1015400020121FDE74107E7008121FDE740E7E7073
:1015500002121FDE74127E7020121FDE74107E7065
:1015600008121FDE740E7E7001121FDE74126C777B
:10157000121FDE74137E7008121FDE740E6C771259
:101580001FDE801074037AB300B474FF7AB300BC1A
:101590007AB300BD02201E7EB300B4B404247EB32F
:1015A00000A2B4021D7EB300A760030216307EB312
:1015B00000A5707C7EB300A470767E3700A84D3302
:1015C0006802806C7E6300A67C765E700F1B60688C
:1015D0002F2E607F68040B6078567E2400017CB754
:1015E00060053E241478FB7C656E60FF5E6300BC82
:1015F0007A6300BC740E121FDE74117E704080246A
:101600007E2400017CB760053E241478FB7C656E67
:1016100060FF5E6300BD7A6300BD740E121FDE744E
:10162000147E7080121FDE740E6C77121FDE800332
:1016300002201002201E7EB300A25480BEB080683B
:10164000030216C17EB300A51BB168191468280BEC
:10165000B1786E7E3418B87E2400FF7A1F00B87E01
:1016600034001280547E3418CA7E2400FF7A1F0092
:10167000B87E34004380427EB300A4146819146815
:10168000280BB1783C7E3418B47E2400FF7A1F000A
:10169000B87E34000480227E3419117E2400FF7A43
:1016A0001F00B87E34000880107E3418967E240017
:1016B000FF7A1F00B87E34001E7A3700B68005809E
:1016C000000220107E3700A8BE3700B650047A37DB
:1016D00000B6021FF153B2FC43B10374807E34FEA6
:1016E000077E24007E7A1BB07E34FE077E24007EB7
:1016F0007E1BB030E0F275DC0075F490E46C77127C
:101700001FDE74017E7008121FDE74077E703F12A8
:101710001FDE74097E703F121FDE740B7E7007128D
:101720001FDE74016C77121FDE74027AB300B4E41A
:101730007AB300B57AB300BC7AB300BDC2027E347E
:1017400001007E2400C27A1F00087AB3000C7AB32D
:10175000000D74087AB3000EA9D7AF74017AB300F4
:101760006C7EB3006C700B9F117A1F00989F000273
:1017700000EE227EB300B4B404247EB300A2B4020F
:101780001D7EB300A760030218067EB300A5707625
:101790007EB300A470707E3700A84D336802806667
:1017A0007E6300A67C765E700F1B60682C2E607FC7
:1017B00068040B6078507E2400017CB760053E24ED
:1017C0001478FB7C654E6300BC7A6300BC740E1217
:1017D0001FDE74117E701080217E2400017CB760B2
:1017E000053E241478FB7C654E6300BD7A6300BD22
:1017F000740E121FDE74147E7020121FDE740E6CC5
:1018000077121FDE800302201002201ECAF8740E19
:101810006C77121FDE7411121FB57CFB30E20F745F
:10182000117C7F5E70FB121FDEE47AB300B57CBFD3
:1018300030E40A74117C7F4E7080121FDE7EB3008C
:10184000B524FD68461468480BB278477CBF30E089
:10185000427E0800A27420121D637E3700A8121D6C
:10186000D47A3700A87EB300A2546024E0680D2427
:10187000E0680E2440780F121B598017121F3F801A
:10188000121200C8800D1220108008121AF2800374
:10189000121C09DAF8221E035300540043002000F2
:1018A000550053004200200053006500720069009B
:1018B00061006C00040309041201000202000040F0
:1018C000BF3402FF000101020001090243000201CE
:1018D000008032090400000102020100052400100A
:1018E0000105240100010424020205240600010769
:1018F0000582034000FF09040100020A00000007FE
:1019000005810240000007050102400000000001BF
:1019100000080353005400430075ED1C2275ED1DB3
:101920002275ED1E2275ED1F2275ED202275ED2129
:10193000A5EF540FA2E064082275ED22A5EF22A5C1
:10194000EC6480A5FC22A5EC547FA5FC2275ED2D4E
:101950002275ED2E2275ED2F226D117E043F8075CC
:10196000ED302275ED25A5EF227C7475ED27227DE3
:101970003275ED282275ED292275ED322275ED3193
:101980002275ED33A5EF22A5FF75ED342275ED35F7
:10199000A5EF22A5FF75ED3622CA7BCA6BCA5BCACA
:1019A0004BCA3BCA2BCA1BCA0BC0D0C083C0827EA5
:1019B000F1FC7406121FB57CEB7402121FB57CCBD0
:1019C0007404121FB57CDB7CBE30E1031220377C2F
:1019D000BE30E203121C567CBC30E00312180C7CB3
:1019E000BC30E103121D287CBC30E203121E367CA1
:1019F000BD30E10312136A7CBE30E0031220367A58
:101A0000F1FCD082D083D0D0DA0BDA1BDA2BDA3BB0
:101A1000DA4BDA5BDA6BDA7B327584017E44041FC1
:101A2000E47A49B01B4478F97EF800BD7E0400FFDB
:101A30007E14203C0B0A405D44681A692000020BAA
:101A40000E0B44800A7E0BB07A29B00B240B0C1BC2
:101A50004478F280DF7E0400FF7E1421050B0A40EB
:101A60005D446822295000020A25693000032E08CF
:101A700000050B44800A7E0BB07A1BB00B1C0B0CCC
:101A80001B4478F280D7021EFECA3B7F317A0F00DA
:101A90006C120F4C9000C00BEA20BE24000A504F7D
:101AA0007E1700704D1168477E2F006C7E2BB0B4FE
:101AB000013D7E340005AD327D232E2400C67A51CF
:101AC000827A4183797E00021BEA607CB32E340067
:101AD000CA7A71827A6183F09000C00BEA30BE341A
:101AE000000A500B9000C00BEA300B341BEA30DACE
:101AF0003B22CAF8740E6C77121FDE7411121FB5E8
:101B000020E1537E3700B6BE34004028057EF04009
:101B100080027CF77E0F00B87C7F7420121E610A61
:101B20002F7E3700B69D327A3700B60A157E1F0029
:101B3000B82D317A1F00B87E3700B64D33780F7458
:101B4000117E700A121FDEE47AB300B580087411AA
:101B50007E7002121FDEDAF8227EB300A3BEB00D43
:101B600050507EA003A4901B6A73021B91021B9429
:101B7000021BB2021B97021BB2021B9A021B9D02A0
:101B80001BA0021BA3021BA6021BA9021BAC021B6B
:101B9000AF02118B021597021773021CA0021636B2
:101BA0000200C2021BB50214F2021CEA021E8A02E3
:101BB00000C50220107EB300A2B480227EB300A52F
:101BC000701C7EB300A470167EB300A770107EB3A5
:101BD00000A6700A7E3700A8BE3400016803022008
:101BE000107EB300B4B4040A7E34190F7E2400FFC3
:101BF00080087E34190D7E2400FF7A1F00B87E34E1
:101C000000017A3700B6021FF1740E6C77121FDEE6
:101C10007411121FB530E03D7E0F00B87420121D04
:101C2000630A1B7E2700B69D217A2700B67E1F001F
:101C3000B82D317A1F00B87E3700B64D33780E7458
:101C4000117E7048121FDEE47AB300B52274117E53
:101C50007040021FDE22E46C77121FDE74027AB33A
:101C600000B4E47AB300B5C202740E7E7001121F94
:101C7000DE74117E7048121FDE740E7E7002121F19
:101C8000DE74117E7048121FDE740E7E7001121F0A
:101C9000DE74147E7090121FDE740E6C77021FDEED
:101CA000CAF87EB300A270237EB300A7701D7EB376
:101CB00000A670177EB300A570117EF300A4BEF0DD
:101CC0008050087E3700A84D336805122010801719
:101CD000E47C7F121FDE4CFF6804740380027402F0
:101CE0007AB300B412201EDAF8227EB300B4B40432
:101CF0001D7EB300A2B481167EB300A570107EB322
:101D000000A7700A7E3700A8BE34000168030220D5
:101D1000107E34190D7E2400FF7A1F00B87E340037
:101D2000017A3700B6021FF1CAF8740E7E700112F4
:101D30001FDE7411121FB57CFB30E50874117E7034
:101D400040121FDE7CBF30E20774116C77121FDE79
:101D50007E3700B24D3368067E3700B29934C20236
:101D6000DAF822CA3B7F30CAB80BFD7416121FB5D1
:101D70007AFBB039BFFFFF800C29BFFFFE121FB5F1
:101D80007A3BB00B747EFBA07CBA147AFBB04CAAF1
:101D900078E729BFFFFF9EF80003DA3B227F617FCF
:101DA0007080177E7BB0600C693FFFFD1B34793F6C
:101DB000FFFD7802E4220BF40BD47E6B607E7B7017
:101DC000BC7668DF7E6B607E7B70BC762803740116
:101DD0002274FF227A3700687E3400697E24000076
:101DE0007E1B307E34006A7E2400007A1B307E34F5
:101DF00000687E2400007E1B307E34006B7E240051
:101E0000007A1B307E37006A22CA797A0F00947EEE
:101E10003400947E2400007A1F00987E1400007E17
:101E20000400017E1F00941200EE7D730A37122019
:101E30002B7D37DA7922CAF8740E7E7002121FDE0B
:101E40007411121FB57CFB30E50874117E704012CE
:101E50001FDE7CBF30E20774116C77121FDEDAF8E8
:101E600022CA3BCA787F30CAB8800B7EFBB07E3B6B
:101E7000700B74121FDE29AFFFFF7CBA1439BFFF4D
:101E8000FF4CAA78E61BFDDA3B227EB300B4B40413
:101E90001B7EB300A2B401147EB300A5700E7EB306
:101EA00000A770087E3700A84D3368030220100297
:101EB000201E7EB300B4B404097EB300A2BEB0A15C
:101EC00068030220107E1800087A1F00B87E3700D1
:101ED000A87A3700B6021FF17EB300B4B404097EBD
:101EE000B300A2BEB02168030220107E1800087A59
:101EF0001F00B87E3700A87A3700B6022002120011
:101F000003E58070067E24000180026D22E5800AD0
:101F10003B4D3278EC9F007E3421037E2400FF028B
:101F200000CE801200000000000000000000000051
:101F30000000000000007D231B344D2278E6227E45
:101F4000B300A324DF680A14680A0BB17809021EE3
:101F5000D8021EB2021F8A022010A9C7AF740E7EDB
:101F60007001121FDE74146C77121FDEC200A9D735
:101F7000AF22CA797D7380077E3403E8121F227D69
:101F8000371B744D3378F1DA79227EB300B4B40490
:101F9000097EB300A2BEB021680302201002201EF9
:101FA0007CA77C7B0A5A2E540020121E6174117E7D
:101FB0007001021FDE7CABE5FC20E7FB7CBA4480AD
:101FC000F5FCE5FC20E7FBE5EC227C7BBE700940DC
:101FD00005BE700E4004A5BF2002D322C3227CA7F9
:101FE0007C7BE5FC20E7FB7CB7547FF5FC7AA1EC19
:101FF0002274037AB300B574117E7040121FDE02A2
:102000001AF274047AB300B574117E7040021FDEB8
:1020100074057AB300B574117E7060021FDEE47A35
:10202000B300B574117E7048021FDE7E1400007E7E
:102030000400010214452222283029000002000F6A
:1020400000000004002102625A0000010025000087
:102050004000264AA8C0004AB71B004B28C0004BCE
:10206000371B004B8CA0004B9896804BA8C0004BB0
:10207000B71B004BCDFE604BE4E1C04BFCAAD04C3B
:102080000583B04C0CA0004C1896804C2037A04C17
:10209000240830000200660000000100AB000002CE
:1020A00000AC0000000400AE00FF2117000200B2E7
:1020B00000000000D2D1B1A3B4E620256420B5BD54
:1020C000454550524F4DD6D00D0A00032070757310
:1020D00068007365743A25640073657400C9CFB4F1
:1020E000CEB1A3B4E6B5C4D6B5CAC7A3BA25640DAC
:1020F0000A00042070756C6C00676574000120682C
:10210000657800300000020100C0000000040100FA
:10211000C2FFFFFFFF0000405354434953502300C8
:00000001FF
