:100000000205E7CAB8CA1BC0D17E34FA627E24005A
:100010007E7E1BB030E00A7E1BB054FE7A1BB0D24D
:10002000027E1BB030E2087E1BB054FB7A1BB07E10
:1000300034FA6A7E24007E7E1BB030E00A7E1BB05C
:1000400054FE7A1BB0D2017E1BB030E1087E1BB09B
:1000500054FD7A1BB0D0D1DA1BDAB8327AB1FEA9DE
:0A006000A1FDE43368F9A9C1FD22F7
:10006B00020003CAB8CA1B7E34FD7D7E24007E7E4F
:10007B001BB030E007D20074807A1BB0DA1BDAB801
:05008B003228302900BD
:1000930002006EE47E34FA607E24007E7A1BB07E1A
:1000A30034FA627A1BB074FF7E34FA637A1BB0E4CD
:1000B3007E34FA947A1BB07E5400000A1A7E34FA16
:1000C300657A1BA07CAB7E34FA667A1BB074C07E63
:1000D30034FA617A1BB0E47E34FA687A1BB07E345A
:1000E300FA6A7A1BB074FF7E34FA6B7A1BB0E47E33
:1000F30034FA967A1BB07E34FA6D7A1B307E34FA6A
:100103006E7A1BA074A17E34FA697A1BB022A9C44B
:100113008EA9C38EA9D28E0A56F5D67D53F5D7A9DB
:06012300C2AFA9D48E2238
:03012B000201DDF1
:030133000201DDE9
:03013B000201DDE1
:030143000201DDD9
:03014B000201DDD1
:030153000201DDC9
:03015B000201DDC1
:030163000201DDB9
:03016B000201DDB1
:030173000201DDA9
:03017B000201DDA1
:030183000201DD99
:03018B000201DD91
:030193000201DD89
:03019B000201DD81
:0301A3000201DD79
:0301AB000201DD71
:0301B3000201DD69
:0301BB000201DD61
:0301C3000201DD59
:0301CB000201DD51
:0301D3000201DD49
:1001DB00800002006B7F507EC400007ED400497EFD
:1001EB009401F10202394001227CEACA89CA5BCA36
:1001FB006B1205FDDA6BDA5BDA897E9401F17CAE6A
:10020B0022540F2490D43440D430F30CBEB0414070
:10021B0007BEB05B500224204CCC68021BC00B8481
:10022B00D389944CCC680B742012022380F5CA3B03
:10023B006D889F337CAE7E5BB00B5C7007C37D38E3
:10024B00DA3B8994B42569C2F37E5BB00B5CA5F8ED
:10025B0024D0BEB00A501B7E500A20F60DAC5CA514
:10026B002D7CCB70034EF00180DDAC5DA52D7CDBCE
:10027B0080D524CFBEB01AA5E850055E00DFD2F3BF
:10028B009004AFA3E4936011BCB078F77414934C53
:10029B00AB30F6B34EF08080AEA3E4936010BCB0ED
:1002AB0078F77413937C3B741D937C2B89147CB06F
:1002BB008013742012022320F205BEC00250F31BE0
:1002CB006D29B6000112022302022E1B6E69160065
:1002DB00020B6A00BE08000078087E0400FF7E1443
:1002EB00008C20F21E4CCC681A7F10E47E1B804CD5
:1002FB008868070B1C04BCBD78F2C2F6CA0B12044B
:10030B000DDA0B7E0BB060C0CA0B120223DA0B0B9B
:10031B000C4CDD68EE1BD078EA80ADD2F07E10106D
:10032B0080037E10085EB05F800AD2F67E100A80D2
:10033B00057E100AC2F66D119F117E00201B6C7E8C
:10034B006B7030F6021A3720F1051B6C7E6B603038
:10035B00F6041A261A2430F0051B6D0B6A20A5EC47
:10036B003382F692F6500A7CEA9F229F217F127C01
:10037B00AE4C44780F7C457C567C676C772E00F82E
:10038B0078EF80122F117CB3337C3B9CB140047C03
:10039B003B0B70A5D8EE7CB230E005DAB8C44C3B11
:1003AB00CA380B207E00207E3000BE18000078C1BA
:1003BB00BE1008780730F404C2F480B5CA287CB2AA
:1003CB00BCBD38027CBD12040DDA28BC2D500A1BB3
:1003DB00D0E4CA2812020C80F07CB213DAB84004C5
:1003EB00C4CAB8C4CA28BEF08040095CDD7805A534
:1003FB00DA0260065EF07F12020CDA28A5DADA0266
:10040B00022EBEF001680F30F402240220F5062004
:10041B00F70330F6010420F229BCBC5025CAB87C86
:10042B00BF13B0E67420501174307C8A5E80F06884
:10043B000812044D5EA00F8003120223DAB8BCBC75
:10044B0078DB30F40F7430120223745830F30274DB
:10045B007812022330F605742D020223742B20F53B
:10046B00F8742020F7F3221B6C7E6BB010F1021B8B
:10047B006C20F60B30E704F404D2F27CCB80052021
:10048B00E7057CDB0202525EF07F80F81B6E69167B
:10049B0000020B6A0030F0076D221B0A200B0D1BAC
:1004AB000A8002023D2D2B204C4248232E0053582C
:1004BB004F44494355502A4E00042080010200103E
:1004CB0040D6282D3535C23C267297020303030311
:1004DB00020303040475E900A9D7BA75EA00759302
:1004EB0000759400759100759200759500759600D6
:1004FB0075B10075B20075B30075B40075C90075A0
:10050B00CA0075CB0075CC0075E10075E2006D7704
:10051B007CBF7D372E3400007A71827A6183F00BB9
:10052B0074BE74010078E9E41205977E1406097E07
:10053B000400FF1201E0120096D2AFC202C20130DA
:10054B0000FDC2007E34FA977E24007E7E1B606C19
:10055B00777E14FA6C7E04007E7E0B500A752D7329
:10056B001B747E34FA637E24007E7A1BF07E34FA91
:10057B00947A1BE0E47E34FA697A1BB074C07E1463
:10058B00FA617A0BB074A17A1BB080B37C7BA5BFE8
:10059B00020C7E34FFD012011175FD108015A9C716
:1005AB00DD75FD5075D2FF75D3D0A9C6DDA9D5DD9C
:1005BB00A9D7DDA9C2BA74C07E34FD7C7E24007E2F
:1005CB007A1BB074407E34FD7F7A1BB0E47E34FD21
:1005DB007E7A1BB07E34FD8B7A1BB0227584017E34
:1005EB0044041FE47A49B01B4478F97EF8004802B2
:1005FB0004E0CAF87CFB12005C7CBFDAF8224149AC
:10060B00383035315520554152543420546573746C
:0E061B002050726F6772616D6D65210D0A00CF
:00000001FF
