:03000000020100FA
:030023000201F5E2
:1001000075E90075EA0043BA80759300759400752F
:10011000910075920075950075960075B10075B2E5
:100120000075B30075B40075C90075CA0075CB00C1
:1001300075CC0075E10075E2007581D075D0007452
:10014000011201B3D2AF90016E12018EE530B531CC
:10015000028018200015D20074402530A5F8A5862D
:10016000990530E530B4200375300002014C414957
:10017000383035315520554152543120546573740F
:100180002050726F6772616D6D65210D0A00E493F6
:10019000600AD200F5992000FDA380F222538EEF71
:1001A000538EF7438E048583D68582D753AFFB43A6
:1001B0008E1022B4020B438E0190FFD012019D805D
:1001C0001BC28E538EFE438E405389BF5389CF7519
:1001D0008DFF758BD0C2AB538FFDD28E53983F43AA
:1001E0009840D29CD2AC53A23F43A200C2007531CA
:1001F0000075300022C0D0C0E0C000309815C29811
:1002000074402531A5F8A5A6990531E531B4200340
:10021000753100309904C299C200D000D0E0D0D02E
:0102200032AB
:00000001FF
