:10000000020119A9C48EA9C38EA9D28E7CB6F5D6D9
:0B0010007F21F5D7A9C2AFA9D48E2232
:100023000200E875E900A9D7BA75EA00759300756F
:10003300940075910075920075950075960075B1E1
:100043000075B20075B30075B40075C90075CA00B8
:1000530075CB0075CC0075E10075E20074021200E7
:100063009FD2AF7E1401437E0400FF12012F7E73E3
:1000730000A1BE7300A268F62000F37EA300A20ACB
:100083003A09B30021F599D2007CBA047AB300A2ED
:10009300BEB08040D9E47AB300A280D27C7BA5BFF6
:1000A300020CA9D08E7E18FFD01200038018C28ED6
:1000B300A9C08EA9C689A9D68E5389CF758DFF7520
:1000C3008BD0C2ABD28EE598543F4440F598D2AC66
:1000D300D29C53A23FE5A2F5A2C200E47AB300A2E8
:1000E3007AB300A122CA2BC0D130981EC2987EA138
:1000F300997EB300A10A4B19A40021047AB300A18D
:10010300BEB0804005E47AB300A1309904C299C21D
:1001130000D0D1DA2B327584017E44041FE47A497E
:10012300B01B4478F97EF800A2020026800C7E0BF7
:10013300B0F599D2002000FD0B147E0BB070EF22B6
:100143004149383035315520554152543120546599
:1001530073742050726F6772616D6D65210D0A00B3
:00000001FF
