:03000000020100FA
:03000B0002037875
:1001000075E90075EA0043BA80759300759400752F
:10011000910075920075950075960075B10075B2E5
:100120000075B30075B40075C90075CA0075CB00C1
:1001300075CC0075E10075E2007581D075D0007551
:1001400038007E00307E2008A57610A508A5DAF8D4
:10015000C28C438E805389FB5389FC758CA2758AAF
:1001600040D2A9D28CD2AF75390C753A00753B00DC
:1001700012021E75433275420AE4F53EF53FF54022
:10018000F5413000FDC2007E353C0B347A353CBE73
:100190003403E8400D7E3400007A353C12024512EB
:1001A000021E7E353CBE3401F4780312021ED54394
:1001B00006754332120285E5416060E54175F00A3B
:1001C00084F53685F037E541B4190F0539E539C3B3
:1001D0009418400375390012021EE541B41A0D153A
:1001E00039E539B4FF0375391712021EE541B41B16
:1001F00012753B00053AE53AC3943C4003753A005A
:1002000012021EE541B41C10753B00153AE53AB4E4
:10021000FF03753A3B12021E754100020182C0F0D5
:10022000E53975F00A84F53085F031E53A75F00A64
:1002300084F53285F0337E353CBE3401F44003430F
:100240003120D0F022053BE53BC3943C401B753B7D
:1002500000053AE53AC3943C400F753A000539E58C
:1002600039C39418400375390022000102000300CD
:1002700000000400000000000000C0037E303CA528
:10028000DBFDD00322C006C0077E613F7580F012FF
:10029000027AE58054F0F53F75800F12027AE5800E
:1002A000540F453FF53F633FFFA5EEB53F487E61E4
:1002B0003E853F3EE53E603BA5EE600FA5EEB53EB8
:1002C000350540E540B4142E754012E53EC4540F88
:1002D00090026A93A5FE601EE53E540F93A5FF6051
:1002E00015A5EE25E025E0A5FEA5EFA52E240CF52D
:1002F0004180037540007580FFD007D006223F067D
:100300005B4F666D7D077F6F777C395E797100404A
:10031000761E7038375C733E783D6750376EBF8607
:10032000DBCFE6EDFD87FFEF460102040810204019
:1003300080C0027E20083392B4D2B2C2B2A5DAF6EF
:10034000D00222C083C082C0009002FEE538243073
:10035000A5F8A5E693120331900329E53893F4122A
:100360000331D2B5C2B50538E53854F860037538A5
:1003700000D000D082D08322C0D0C0E0120343D28C
:0603800000D0E0D0D032F5
:00000001FF
