:03000000020100FA
:03000B000201D817
:03001B000201E3FC
:030063000201EEA9
:03009B000201F966
:0300A30002020452
:1001000075E90075EA0043BA807593007594FF7530
:10011000910075920075950075960075B10075B2E5
:100120000075B30075B40075C90075CA0075CB00C1
:1001300075CC0075E10075E2007581D075D00012B4
:10014000015512017112018D1201A61201BFD2AF29
:10015000C2C0020152C28CD2A95389FC4389005308
:1001600089FB538FFE438E80758CA2758A40D28C9A
:1001700022C28ED2AB5389CF4389005389BF538F9C
:10018000FD438E40758DD1758B20D28E22538EE328
:1001900043AF04538FFB538FFD438E0475D6E07538
:1001A000D7C0438E102253DDF043AF2053DDFE5302
:1001B0008FFD43DD0275D4E875D59043DD082253E9
:1001C000DD0F43AF4053DDEF538FFD43DD2075D28C
:1001D000ED75D34043DD8022C0D0C0E0B287D0E0CF
:1001E000D0D032C0D0C0E0B286D0E0D0D032C0D0C3
:1001F000C0E0B285D0E0D0D032C0D0C0E0B284D070
:0F020000E0D0D032C0D0C0E0B283D0E0D0D03256
:00000001FF
