:100000000200037584017E44041FE47A49B01B4456
:0900100078F97EF800200201E3FA
:0300230002009741
:10004300020166E47AB30009C200C2C074017AB344
:100053000008900000E0F5993000FDD2C07EA05A60
:100063006C770A272E2401007A51827A41837EEB32
:10007300600A272E2400007A51827A4183E0BCB6BD
:1000830068057EA0FE80070B70BE708040D4C2C09E
:100093007AA18022CA59CA39C0D1C083C08230999B
:1000A30029C2997E730008BE7080501C7EA300088D
:1000B3007CBA047AB300080A3A2E3400007A7182BB
:1000C3007A6183E0F5998002D200309802C298D019
:1000D30082D083D0D1DA39DA5932A9D5BBA9C4BBCE
:1000E300759A1074107E34FDC87E24007E7A1BB08E
:1000F3007E1BB054BF7A1BB07E1BB044047A1BB086
:100103007E1B307A1B3074027E14FDCB7E04007E8E
:100113007A0BB07E1BB044087A1BB0A9D0AF22A9DA
:10012300D3BBA9C2BB75981074107E34FDC07E2466
:10013300007E7A1BB07E1BB054BF7A1BB07E1BB00F
:1001430054FB7A1BB07E1B307A1B3074027E14FD85
:10015300C37E04007E7A0BB07E1BB044087A1BB0CA
:10016300D2AC22CA59CA39C0D1C083C082A9319A3C
:1001730003A9C19AA9309A20A9C09A7EA19B7E7334
:1001830000097CB7047AB300090A372E3401007AD8
:1001930071827A61837AEBA0D082D083D0D1DA39AD
:1001A300DA593275E900A9D7BA75EA007593007573
:1001B300940075910075920075950075960075B160
:1001C3000075B20075B30075B40075C90075CA0037
:1001D30075CB0075CC0075E10075E2007580FF22D8
:1001E3001201A61201221200DDD2AF6D337CB77D5E
:1001F300232E2400007A51827A4183F0E47D232E5A
:100203002401007A51827A4183F00B34BE3400809A
:0702130048DB12004680FEEB
:00000001FF
