:0600000002063BD20032B3
:10000B000200031E0341004900430020005500532A
:10001B000042002000440065007600690063006523
:10002B0000040309041201000200000040BF340366
:10003B00F0000101020001050C0901A101150025C9
:10004B00FF750895400901B102090181020901916F
:10005B0002C00902290001010080320904000002DC
:10006B0003000000092101010001221B000705818B
:10007B00034000010705010340000108034100494B
:10008B0000430075F490A9D7B6A9D7B5E46C7712E5
:10009B00066674017E700812066674077E703F1246
:1000AB00066674097E703F120666740B6C77120637
:0F00BB006674017E7001120666E47AB3001222A9
:1000CB000200CECA3BCA59CA1BCA0BC0D1C083C0DF
:1000DB0082E5FC7AB3002474061206517AB3002130
:1000EB0074021206517AB3002274041206517AB3C9
:1000FB0000237EB3002130E225740E7E70011206C0
:10010B006674117E7040120666740E7E70011206C4
:10011B006674147E7080120666E47AB300127EB3A6
:10012B00002220E0030203C3740E6C771206667480
:10013B00111206517CFB30E20F74117C7F5E70FB59
:10014B00120666E47AB300127CBF30E40A74117CA9
:10015B007F4E70801206667EB300121BB1780302CD
:10016B00032B14780302037E240368030203C37C6E
:10017B00BF20E0030203C374017AB3001274207E24
:10018B000800081205707E33000F7E3400137E24A6
:10019B0000007A1B307E33000E7E3400147E240068
:1001AB00007A1B307EB30008546024E0780302020F
:1001BB00C4242068030202F77EB3000924FA684BBB
:1001CB0024FD680E0BB268030202F3E47E73000A8F
:1001DB008033740E7E700112066674127E702012CC
:1001EB00066674107E7008120666740E7E7001121D
:1001FB00066674126C7712066674137E700812060C
:10020B0066740E6C771206660202FD74027AB300F6
:10021B00127EB3000B1BB1682014682F24E16871A8
:10022B00242168030202AE7E3400307E2400FF7A64
:10023B001F00157E64001280707E34005D7E2400EA
:10024B00FF7A1F00157E640029805E7EB3000A14BE
:10025B0068191468280BB1784A7E34002C7E240070
:10026B00FF7A1F00157E640004803E7E3400867E7C
:10027B002400FF7A1F00157E640008802C7E34005A
:10028B000E7E2400FF7A1F00157E64001E801A80EC
:10029B00127E3400427E2400FF7A1F00157E64001C
:1002AB001B800674FF7AB300127E370013BD36280D
:1002BB00417A670013803B802F7EB3000924F768D7
:1002CB001714682E240978207E3400807E240001C8
:1002DB007A1F0015740280167E3400807E24000184
:1002EB007A1F00157403800674FF800274FF7AB3C3
:1002FB0000127EB3001214681C1BB168150BB26898
:10030B001724FD68030203C374117E704012066646
:10031B0080160203BB0203AC74117E70600203B142
:10032B007CBF30E1030203C37E370013BE340040B1
:10033B00280674407CEB80027CE774207E0F00154E
:10034B007C7E1205D70A2E7E3700139D327A37003A
:10035B00130A157E1F00152D317A1F00157E3700ED
:10036B00134D33780774117E700A803A74117E70C6
:10037B000280427CBF30E04074207E0F00151205D6
:10038B00700A2B7E3700139D327A3700130A1B7EBF
:10039B001F00152D317A1F00157E3700134D337852
:1003AB000F74117E7048120666E47AB3001280084F
:1003BB0074117E70401206667EB3002230E1267403
:1003CB000E7E700112066674111206517CFB30E52D
:1003DB000874117E70401206667CBF30E207741100
:1003EB006C771206667EB3002330E168740E7E7064
:1003FB000112066674141206517CFB30E608741465
:10040B007E70801206667CBF30E04974217E14003A
:10041B00007E04000112057074146C77120666904E
:10042B000000E0B4AA2E900001E0B4552790000222
:10043B00E0B40120740E7E700112066674217E14E6
:10044B0000407E0400017E70401205D774117E704F
:10045B00011206667EB30024F5FCD082D083D0D186
:10046B00DA0BDA1BDA59DA3B3275E900A9D7BA7520
:10047B00EA00759300759400759108759200759557
:10048B000075960075B10075B20075B30075B400B8
:10049B0075C90075CA0275CB0075CC0075E1007586
:1004AB00E2007E34FE077E24007E7E1BB044807A01
:1004BB001BB07E34FE077E24007E7E1BB030E0F244
:1004CB00E59D543F4480F59D7E34A240120679127F
:1004DB00062112008ED2AF74AA900040F074559092
:1004EB000041F07402900042F07EA003E40A4A2E11
:1004FB004400407A91827A8183F00BA0BEA04078B1
:10050B00EBD2C93000FDC2007E3700190B347A37AD
:10051B000019BE34012C40EB6D337A370019740F80
:10052B001205A9740F1205A97A370010740312056E
:10053B00A974031205A90A56900043F07CB79000EA
:10054B0044F07E3700100A56900045F07CB79000BF
:10055B0046F07E1400407E040001740712060390DF
:10056B000047F0809ECA3B7F307AB3002574161289
:10057B0006517AB300267AB30027800C7EB3002590
:10058B001206517A3BB00B747EA300267CBA147A08
:10059B00B300264CAA78E57EB30027DA3B227CAB6E
:1005AB0075BD0075BE00E5BC54F04CBAF5BCA9D6C0
:1005BB00BC00000000A9A5BCE43368F9A9C5BCE5E3
:1005CB00BD7C4B6C55E5BE0A3B4D3222CA3B7A7360
:1005DB0000267F307AB30025800C7EB300257E3B4E
:1005EB00700B741206667EA300267CBA147AB300D5
:1005FB00264CAA78E5DA3B227CAB7F706C776C6675
:10060B00800D0A267F072D127E0BB02C7B0B60BC56
:10061B00A638EF7CB7224391085392F7743F7E3490
:10062B00FEA87E24007E7A1BB075DE2F75BC80225F
:10063B007584017E44041FE47A49B01B4478F97E2B
:10064B00F800270204747CABE5FC20E7FB7CBA4482
:10065B0080F5FCE5FC20E7FBE5EC227CA77C7BE549
:10066B00FC20E7FB7CB7547FF5FC7AA1EC22438E90
:0E067B00800A56F58C7D53F58AD2A9D28C22C6
:00000001FF
