:1000000002003302005E7AB199A299E43368FAC221
:02001000992233
:10001300020425A9C7A2A9C6A2E598543F4440F506
:1000230098A9D68EA9C08E758BCC758DFFD28E22E2
:100033007584017E44041FE47A49B01B4478F97E39
:0A004300F800480203862830290067
:030053000204396B
:10005B0002044DCAB8C0D17EB30008047AB30008BD
:10006B00D200D0D1DAB832CAF87CFB1200067CBFC2
:03007B00DAF8228E
:100083000204617F507EC400007ED400497E940048
:10009300970200DF4001227CEACA89CA5BCA6B125D
:1000A3000072DA6BDA5BDA897E9400977CAE2254B5
:1000B3000F2490D43440D430F30CBEB0414007BE7B
:1000C300B05B500224204CCC68021BC00B84D38944
:1000D300944CCC680B74201200C980F5CA3B6D8820
:1000E3009F337CAE7E5BB00B5C7007C37D38DA3B1D
:1000F3008994B42569C2F37E5BB00B5CA5F824D068
:10010300BEB00A501B7E500A20F60DAC5CA52D7CB8
:10011300CB70034EF00180DDAC5DA52D7CDB80D57B
:1001230024CFBEB01AA5E850055E00DFD2F39003DA
:1001330055A3E4936011BCB078F77414934CAB30BF
:10014300F6B34EF08080AEA3E4936010BCB078F7B2
:100153007413937C3B741D937C2B89147CB08013A4
:1001630074201200C920F205BEC00250F31B6D2992
:10017300B600011200C90200D41B6E691600020BFF
:100183006A00BE08000078087E0400FF7E14004960
:1001930020F21E4CCC681A7F10E47E1B804C8868CA
:1001A300070B1C04BCBD78F2C2F6CA0B1202B3DA09
:1001B3000B7E0BB060C0CA0B1200C9DA0B0B0C4CE0
:1001C300DD68EE1BD078EA80ADD2F07E101080039C
:1001D3007E10085EB05F800AD2F67E100A80057E2C
:1001E300100AC2F66D119F117E00201B6C7E6B708E
:1001F30030F6021A3720F1051B6C7E6B6030F60473
:100203001A261A2430F0051B6D0B6A20A5EC3382E5
:10021300F692F6500A7CEA9F229F217F127CAE4C15
:1002230044780F7C457C567C676C772E00F878EF1A
:1002330080122F117CB3337C3B9CB140047C3B0B7D
:1002430070A5D8EE7CB230E005DAB8C44C3BCA38AE
:100253000B207E00207E3000BE18000078C1BE1047
:1002630008780730F404C2F480B5CA287CB2BCBD58
:1002730038027CBD1202B3DA28BC2D500A1BD0E42D
:10028300CA281200B280F07CB213DAB84004C4CAA0
:10029300B8C4CA28BEF08040095CDD7805A5DA023F
:1002A30060065EF07F1200B2DA28A5DADA0200D423
:1002B300BEF001680F30F402240220F50620F70394
:1002C30030F6010420F229BCBC5025CAB87CBF1308
:1002D300B0E67420501174307C8A5E80F068081296
:1002E30002F35EA00F80031200C9DAB8BCBC78DB4E
:1002F30030F40F74301200C9745830F3027478125A
:1003030000C930F605742D0200C9742B20F5F8746A
:100313002020F7F3221B6C7E6BB010F1021B6C20C4
:10032300F60B30E704F404D2F27CCB800520E7051A
:100333007CDB0200F85EF07F80F81B6E691600021A
:100343000B6A0030F0076D221B0A200B0D1B0A807D
:100353000200E32D2B204C4248232E0053584F44D8
:10036300494355502A4E0004208001020010407C6E
:10037300CED3DBDB68E2CC183D01010101010101B1
:1003830001030375E900A9D7BA75EA0075930075EF
:10039300940075910075920075950075960075B17E
:1003A3000075B20075B30075B40075C90075CA0055
:1003B30075CB0075CC0075E10075E200740C7E34DA
:1003C300FE137E24007E7A1BB0120016E47AB3007B
:1003D300087AB30009C28BC289D2AAD2A8D288D222
:1003E3008AA9D48FA9D58FA9D68FD2AF300017C2CF
:1003F300007E7300080A377A3700477E1404847E30
:100403000400FF1200863001E3C2017E7300090A73
:10041300377A3700477E1404757E0400FF12008686
:1004230080CACAB8C0D17EB30009047AB30009D226
:1004330001D0D1DAB832CAB8C0D17EB3000A047A87
:10044300B3000AD202D0D1DAB832CAB8C0D17EB36F
:10045300000B047AB3000BD203D0D1DAB832CAB896
:10046300C0D17EB3000C047AB3000CD204D0D1DA2D
:10047300B832696E743120636E743D2562750D0A5E
:1004830000696E743020636E743D2562750D0A0039
:00000001FF
