:03000000020100FA
:1001000075E90075EA0043BA80759300759400752F
:10011000910075920075950075960075B10075B2E5
:100120000075B30075B40075C90075CA0075CB00C1
:1001300075CC0075E10075E2007581D075D0007452
:100140000112019B12015FD2AF12030B1203407424
:10015000FA12037574FA12037512030B02015C4361
:10016000BA3074C27E34FE807E24007E7A1BB07466
:10017000007E34FE827E24007E7A1BB022F5993008
:1001800099FDC29922538EEF538EF7438E048583D7
:10019000D68582D753AFFB438E1022B4020B438E19
:1001A0000190FFCC120185801BC28E538EFE438EC0
:1001B000405389BF5389CF758DFF758BCCC2AB532C
:1001C0008FFDD28E53983F43984053A23F43A200E5
:1001D000227E34FE827E24007E7E1BB030E6F25406
:1001E000BF7A1BB02274017E34FE817E24007E7AA9
:1001F0001BB01201D12274067E34FE817E24007E63
:100200007A1BB01201D1227E34FE867E24007E7AD3
:100210001BB074027E34FE817E24007E7A1BB012F5
:1002200001D12274037E34FE817E24007E7A1BB0CD
:100230001201D1C37E34FE827E24007E7E1BB0304C
:10024000E101D32274047E34FE817E24007E7A1B79
:10025000B01201D17E34FE877E24007E7E1BB02248
:1002600074007E34FE827E24007E7A1BB074057E8C
:1002700034FE817E24007E7A1BB01201D1227401EB
:100280007E34FE827E24007E7A1BB074057E34FEAE
:10029000817E24007E7A1BB01201D1221201E57406
:1002A000A01202071202234019A5EA120207120245
:1002B00023400FA5E6120207A5081202234003A55A
:1002C000DBF11201F6221201E574A01202071202FC
:1002D000234034A5EA120207120223402A1201E544
:1002E00074A1120207120223401DA5EB54FE600FF9
:1002F000A51B120244A5F6A508120260A5DBF312A5
:100300000244A5F612027E1201F6227E20007E0033
:10031000307E30081202C6E53012017DE53112014F
:100320007DE53212017DE53312017DE53412017D58
:10033000E53512017DE53612017DE53712017D229A
:1003400005300531053205330534053505360537E9
:1003500053300F53310F53320F53330F53340F5366
:10036000350F53360F53370F7E20007E00307E301E
:100370000812029C22C002C003C004A5FC7E141710
:0F038000701B1478FCA5DCF5D004D003D002224A
:00000001FF
