:1000000002049CE47E34FA127E24007E7A1BB074D3
:10001000807E34FA107A1BB07E1400007E34FA170A
:100020007A1B207E34FA187A1B3074097E34FA1950
:100030007A1BB074FF7E34FA1A7A1BB07E34FA1B36
:100040007A1BB074C07E34FA117A1BB022A9C7A201
:10005000A9C6A2E598543F4440F598A9D68EA9C0F8
:0A0060008E758BAA758DFFD28E22DB
:10006B0002016075E900A9D7BA75EA0075937F752F
:10007B0094007591FF75920075950075960075B19A
:10008B000075B20075B30075B40075C90075CA0070
:10009B0075CB0075CC0075E10075E200743F7E34C2
:1000AB00FEA87E24007E7A1BB075DE2F75BC8012F5
:1000BB00004D120003D2AF7E1404ED7E0400FF123C
:1000CB00018674C81204863000F8C2006CFF7E7083
:1000DB000CAC7F2E3400087A71827A6183E00A3B84
:1000EB007A3700477E1404E27E0400FF1201866C0F
:1000FB00EE7E7002AC7E7ED00CACDF2D362E340043
:10010B00007A71827A61830BEA307A3700477E146A
:10011B0004DA7E0400FF1201860BE0BEE00478D106
:10012B007D362E34000A7A71827A61830BEA307A3B
:10013B003700477E1404CA7E0400FF1201860BF0C1
:10014B00BEF010788974C07E34FA117E24007E7A5A
:10015B001BB00200CDCAB8CA1BC0D1E47E34FA1260
:10016B007E24007E7A1BB0D200D0D1DA1BDAB832F3
:04017B0028302900FF
:1001830002006B7F507EC400007ED400497E940140
:10019300970201DF4001227CEACA89CA5BCA6B125B
:1001A30004BEDA6BDA5BDA897E9401977CAE225463
:1001B3000F2490D43440D430F30CBEB0414007BE7A
:1001C300B05B500224204CCC68021BC00B84D38943
:1001D300944CCC680B74201201C980F5CA3B6D881E
:1001E3009F337CAE7E5BB00B5C7007C37D38DA3B1C
:1001F3008994B42569C2F37E5BB00B5CA5F824D067
:10020300BEB00A501B7E500A20F60DAC5CA52D7CB7
:10021300CB70034EF00180DDAC5DA52D7CDB80D57A
:1002230024CFBEB01AA5E850055E00DFD2F39004D8
:1002330055A3E4936011BCB078F77414934CAB30BE
:10024300F6B34EF08080AEA3E4936010BCB078F7B1
:100253007413937C3B741D937C2B89147CB08013A3
:1002630074201201C920F205BEC00250F31B6D2990
:10027300B600011201C90201D41B6E691600020BFC
:100283006A00BE08000078087E0400FF7E14017B2C
:1002930020F21E4CCC681A7F10E47E1B804C8868C9
:1002A300070B1C04BCBD78F2C2F6CA0B1203B3DA07
:1002B3000B7E0BB060C0CA0B1201C9DA0B0B0C4CDE
:1002C300DD68EE1BD078EA80ADD2F07E101080039B
:1002D3007E10085EB05F800AD2F67E100A80057E2B
:1002E300100AC2F66D119F117E00201B6C7E6B708D
:1002F30030F6021A3720F1051B6C7E6B6030F60472
:100303001A261A2430F0051B6D0B6A20A5EC3382E4
:10031300F692F6500A7CEA9F229F217F127CAE4C14
:1003230044780F7C457C567C676C772E00F878EF19
:1003330080122F117CB3337C3B9CB140047C3B0B7C
:1003430070A5D8EE7CB230E005DAB8C44C3BCA38AD
:100353000B207E00207E3000BE18000078C1BE1046
:1003630008780730F404C2F480B5CA287CB2BCBD57
:1003730038027CBD1203B3DA28BC2D500A1BD0E42B
:10038300CA281201B280F07CB213DAB84004C4CA9E
:10039300B8C4CA28BEF08040095CDD7805A5DA023E
:1003A30060065EF07F1201B2DA28A5DADA0201D420
:1003B300BEF001680F30F402240220F50620F70393
:1003C30030F6010420F229BCBC5025CAB87CBF1307
:1003D300B0E67420501174307C8A5E80F068081295
:1003E30003F35EA00F80031201C9DAB8BCBC78DB4B
:1003F30030F40F74301201C9745830F30274781258
:1004030001C930F605742D0201C9742B20F5F87467
:100413002020F7F3221B6C7E6BB010F1021B6C20C3
:10042300F60B30E704F404D2F27CCB800520E70519
:100433007CDB0201F85EF07F80F81B6E6916000218
:100443000B6A0030F0076D221B0A200B0D1B0A807C
:100453000201E32D2B204C4248232E0053584F44D6
:10046300494355502A4E0004208001020010407C6D
:10047300CED3DBDB68E2CC183D02020202020202A9
:100483000204047CAB7E441A0A7D341B347D43781A
:10049300F87CBA147CAB78ED227584017E44041F8A
:1004A300E47A49B01B4478F97EF8004802006E7A7A
:1004B300B199A299E43368FAC29922CAF87CFB1273
:1004C30004B27CBFDAF8222C20415645523A3078E8
:1004D300253034780D0A00307825303478200041F7
:1004E300444325303264203D2000414938303531C2
:1004F30055CFB5C1D041444320444D41B2E2CAD4A3
:08050300B3CCD0F2210D0A0077
:00000001FF
