:0600000002010002018C68
:0300130002019156
:0300530002019611
:03005B0002019B04
:030083000201A0D7
:1001000075E90075EA0043BA80759300759400752F
:10011000910075920075950075960075B10075B2E5
:100120000075B30075B40075C90075CA0075CB00C1
:1001300075CC0075E10075E2007581D075D000C204
:100140008BC289D2AAD2A8D288D28AA9D48FA9D5A3
:100150008FA9D68F1201A5D2AF753900753A00303C
:100160000012C2007599303099FDC29985399930D5
:1001700099FDC2993001E8C2017599313099FDC2EB
:1001800099853A993099FDC29902015F0539D200EB
:1001900032053AD20132053BD20232053CD203325B
:1001A000053DD20432759850438E40538EFE5389DC
:1001B0000F758BCC758DFFC2ABD28E53A23F43A27D
:0201C00000221B
:00000001FF
