:03000000020100FA
:030023000204884C
:1001000075E90075EA0043BA80759300759400752F
:10011000910075920075950075960075B10075B2E5
:100120000075B30075B40075C90075CA0075CB00C1
:1001300075CC0075E10075E2007581D075D0007452
:1001400001120443D2AF90033912042290035C12CF
:10015000042290039B12042274011204B7E5366056
:10016000F7D536F4E531C3940C401F7E0040A5E678
:10017000C39461400DA5E6C3947B5006A5E624E038
:10018000A5F6A508A5B84AE6800302024F12028828
:1001900020D5F77E004AA5B620F07E0040A5B652D5
:1001A0005A12030F20D5E3E53560DFC3942150DAFE
:1001B0007E00401204F99003D8120422E53575F050
:1001C0006484243012041A740AC5F08424301204A2
:1001D0001AC5F0243012041A9003DD1204227E2185
:1001E000357E0040A5E612041AA508A5DAF6740DBE
:1001F00012041A740A12041A0202557E0040A5B6AF
:10020000574DE531C3940BF5357E004B1205331283
:10021000054C20D52A9003EF120422E53575F064D1
:1002200084243012041A740AC5F084243012041A8B
:10023000C5F0243012041A9003F61204228016909E
:100240000402120422800E90040E120422800690F2
:10025000040E120422753100020158C2D5A5FFC355
:1002600094304021A5EFC3943A5006A5EFC39430D3
:1002700022A5EFC39441400DA5EFC3944750F2A5CA
:10028000EFC3943722D2D52275320075330075340E
:10029000007E0042A5B6305BA508A5B658557E0085
:1002A00044A5E612025B20D54AC4F532A508A5E6AE
:1002B00012025B20D53D4532F532A508A5E61202B3
:1002C0005B20D52FC4F533A508A5E612025B20D527
:1002D000224533F533A508A5E612025B20D514C4E8
:1002E000F534A508A5E612025B20D5074534F534A0
:1002F000C2D522D2D522C2D5A5FFC39430400DA5C8
:10030000EFC3943A5006A5EFC3943022D2D522C24F
:10031000D57535007E200B7E004BE53575F00AA4BF
:10032000F535A5E61202F620D50E2535F535A508DA
:10033000A50AA5EAB531E3222241493830353155C5
:10034000CFB5C1D0B5A5C6ACBBFA454550524F4D4F
:10035000B2E2CAD4B3CCD0F2210D0A0057203078D3
:10036000303030303430203132333435363738396C
:100370003020202D2D3E20B6D4307830303030342F
:1003800030B5D8D6B7D0B4C8EBD7D6B7FB313233F7
:10039000343536373839302E0D0A00522030783057
:1003A00030303034302031302020202020202020D8
:1003B00020202D2D3E20B6D43078303030303430EF
:1003C000B5D8D6B7B6C1B3F63130B8F6D7D6BDDAA0
:1003D000C4DAC8DD2E0D0A00B6C1B3F600B8F6D7F0
:1003E000D6BDDAC4DAC8DDC8E7CFC23A0D0A00D2FA
:1003F000D1D0B4C8EB00D7D6BDDAC4DAC8DD210D40
:100400000A00D0B4C8EBB4EDCEF3210D0A00C3FC52
:10041000C1EEB4EDCEF3210D0A00D200F599200013
:10042000FD22E493600612041AA380F622538EEF95
:10043000538EF7438E048583D68582D753AFFB4313
:100440008E1022B4020B438E0190FFD012042D8037
:100450001BC28E538EFE438E405389BF5389CF7586
:100460008DFF758BD0C2AB538FFDD28E53983F4317
:100470009840D29CD2AC53A23F43A200C200753137
:100480000075300075360022C0D0C0E0C000309842
:1004900018C29875360574402531A5F8A5A69905AA
:1004A00031E531B42003753100309904C299C2009E
:1004B000D000D0E0D0D032C002C003C004A5FC7E82
:1004C0001415991B1478FCA5DCF5D004D003D002D8
:1004D0002275C70075C50075C60075F6FF75C3FFA8
:1004E00075C4FF22A2AF92D5C2AF75C65A75C6A514
:1004F00000000000A2D592AF22C0027E21358532D5
:10050000F68533C38534C475C78075F51675C50186
:100510001204E4A5A6C2E5C42401F5C4E5C3340071
:10052000F5C3E5F63400F5F6A508A5DAE31204D123
:10053000D002228532F68533C38534C475C78075F1
:10054000F51675C5031204E41204D122C002C000DE
:100550007E21358532F68533C38534C475C78075F1
:10056000F51675C502A586C21204E4E5C42401F59A
:10057000C4E5C33400F5C3E5F63400F5F6A508A5D7
:10058000DAE3D0007E21358532F68533C38534C465
:1005900075C78075F51675C5011204E4E5C2A56638
:1005A000701FE5C42401F5C4E5C33400F5C3E5F6C6
:1005B0003400F5F6A508A5DAE01204D1C2D5D002C0
:0905C000221204D1D2D5D002228E
:00000001FF
