:10000000021333CA79740E7E7001121650741412E2
:10001000163B7CFB30E60874147E70801216507C10
:10002000BF20E0030200C47E1402407E040001747D
:10003000211213B07AB300107E1F005D4D237803A8
:100040000200C26CFF80737EB300111A3B7E0F006A
:100050005D2D317D207E1BA00A4F2E4402407A91F7
:10006000827A81837EEBE0BCEA7839047AB30011AE
:100070007E7300111A372D317D207E1BB0703974CC
:10008000146C7712165075F40075DC00E47E34FEB3
:10009000077E24007E7A1BB07E34000A1215E275BA
:1000A000C76080FE7E1F005D7E1B70BCE778047415
:1000B000018001E47AB300110BF07E730010BC7F65
:1000C0003885D200DA79220216A022020E4B7F7008
:1000D0007F517E6F00597E9400DD0201174005E4D8
:1000E0007A7BB0227A7BB00B7C22540F2490D434DC
:1000F00040D430F30CBEB0414007BEB05B50022488
:10010000204CCC68021BC00B84D389944CCC680B68
:10011000742012010180F5CA3B6D889F337CAE7E4E
:100120005BB00B5C7007C37D38DA3B8994B42569FA
:10013000C2F37E5BB00B5CA5F824D0BEB00A501BA6
:100140007E500A20F60DAC5CA52D7CCB70034EF0E2
:100150000180DDAC5DA52D7CDB80D524CFBEB01A3F
:10016000A5E850055E00DFD2F39004ECA3E49360B1
:1001700011BCB078F77417934CAB30F6B34EF080E7
:1001800080AEA3E4936010BCB078F77416937C3B08
:100190007423937C2B89147CB0801374201201018A
:1001A00020F205BEC00250F31B6D29B600011201FA
:1001B0000102010C1B6E691600020B6A00BE0800EA
:1001C0000078087E0400FF7E1416CD20F21E4CCC71
:1001D000681A7F10E47E1B804C8868070B1C04BCE7
:1001E000BD78F2C2F6CA0B1202EBDA0B7E0BB060DE
:1001F000C0CA0B120101DA0B0B0C4CDD68EE1BD0F0
:1002000078EA80ADD2F07E101080037E10085EB0D8
:100210005F800AD2F67E100A80057E100AC2F66D53
:10022000119F117E00201B6C7E6B7030F6021A3716
:1002300020F1051B6C7E6B6030F6041A261A243000
:10024000F0051B6D0B6A20A5EC3382F692F6500A7E
:100250007CEA9F229F217F127CAE4C44780F7C4524
:100260007C567C676C772E00F878EF80122F117C1B
:10027000B3337C3B9CB140047C3B0B70A5D8EE7C37
:10028000B230E005DAB8C44C3BCA380B207E0020FF
:100290007E3000BE18000078C1BE1008780730F428
:1002A00004C2F480B5CA287CB2BCBD38027CBD1241
:1002B00002EBDA28BC2D500A1BD0E4CA281200EA4F
:1002C00080F07CB213DAB84004C4CAB8C4CA28BEED
:1002D000F08040095CDD7805A5DA0260065EF07FFB
:1002E0001200EADA28A5DADA02010CBEF001680F82
:1002F00030F402240220F50620F70330F601042032
:10030000F229BCBC5025CAB87CBF13B0E67420509B
:100310001174307C8A5E80F0680812032B5EA00F97
:100320008003120101DAB8BCBC78DB30F40F743002
:10033000120101745830F302747812010130F6058D
:10034000742D020101742B20F5F8742020F7F3229C
:100350001B6C7E6BB010F1021B6C20F60B30E704B7
:10036000F404D2F27CCB800520E7057CDB0201306F
:100370005EF07F80F81B6E691600020B6A0030F099
:10038000076D221B0A200B0D1B0A8002011BE46C67
:1003900022BE3007500B7F1F2D312E34FFF77E39E0
:1003A000B0227CBF20E7A8742E4EF080020101121B
:1003B00004D5403D7CBD7003047CDB1205EC7C3D24
:1003C0004C3368101B307CBE20E40912038E70048D
:1003D0004C3378F07CBD7CD3BEA0FD481CBCAB5830
:1003E00018E49CBA2CB31801E47CDB0204761204F6
:1003F000D5406E7CBD041205EC7AFBA07CAE7CBDC2
:10040000A2F492F0C2F4400260010424051202EB4F
:100410007E30FF0B3012038ECA381200EA20F0043F
:100420004CDD68031203A2DA38BC3D78E6740E1284
:1004300000EA742B7EFBA030F707742D6EA0FF0B33
:10044000A07AFBA01201017EA00A7EFBB0847AFB99
:10045000A01200EA7EFBB01200EA9EF8000802013A
:100460000CD2F27ED0000201CB1204D540F37CBA4C
:100470002CBD041205EC7AFBA07CBA7CAE30E701FF
:10048000E40420F4044CDD6805D2F0C2F4042CBD71
:100490001202EB6C337EFBB0601B20E712147AFB78
:1004A000B012038ECA381200EADA380B3080E60444
:1004B0007AFBB01B3012038ECA381200EA4CDD689A
:1004C000071203A21BD080E19EF8000930F003124E
:1004D00003A202010C7CEA7CAF10F7037ED0067CFD
:1004E000FA1B6E693600020B6A200205342D2B20A0
:1004F0004C4248232E0053584F44494355502A4EEE
:10050000464547000420800102001040B4060B134A
:1005100013A01A04507569EEAF0102020202010233
:100520000203030403034E614E002B494E46002D87
:10053000494E46007D522D557CBE92E67CEB7CBA3E
:10054000601F0470287CB5C2E77E0400FF60067E51
:10055000140526D3227E14052F40047E14052AD3C9
:1005600022DA099F22CA2BCA2BC3CA09220A0A7E91
:10057000144D10AD109E083AF09E10267CB5C2E7CF
:100580007EA0567C9BA46E54FFFF2E54C511ACA9CF
:100590002D15E4A539CAB8CA1B20E70A120780DA6C
:1005A0001B1206CF800AF404120780DA1B12062FF2
:1005B000DAA87CB5337CB4334E50806C4424822F4F
:1005C000111478FBDA497407BE400A40099E400ABC
:1005D000CA0201140BA0CA486C442F117F012F11CD
:1005E0002F112F101478EFCA48CA49227F0F20E735
:1005F0003ABEB007400274070A0B2D109E14000982
:100600007E19B02EB0FB501F4C116817E47A19B058
:100610001B147E19B0047A19B0B40A0BE47A19B02D
:10062000A5D9ED0BA074017A19B0225EE0BF225D5E
:1006300022680D5D0078122D220B4068099F11225F
:100640002D000B0078F90207F41207B75C800B80CD
:100650006808248150072CB0500A0207FC2CB040D7
:10066000030207F97C8B5D1178267CB17CA5BE1056
:1006700080680A5D33780DA5BD80057F100207E60E
:100680006D0080307F017C5B7CB17CA5AD12802445
:100690005D337806A5BD80F080E1CA887D41AD4319
:1006A0007CB17CA5AD122D1450020B047C5BAD23F4
:1006B0002F01DA88A42D05BE008040060B80780447
:1006C00080982F007C437C507C617C720207D0BEF6
:1006D00024FFFF6806BE04FFFF78030207F4120739
:1006E000B75CB00468F57CB8A54868EF7CB87003C7
:1006F0009F1122A5B800030207FC2E008150079C21
:100700008038070207F99C8050ED0A51C2E74D512D
:1007100078030207E67E5400807E901A6C00800603
:100720001B9068142F11BF1040049F104CAB033076
:10073000E7EECAA86CAA80E8DA39DA587C4ABE50DB
:1007400080500A1B8068BC2F1150020B700207D02A
:100750003F8000004120000042C80000447A0000B1
:10076000461C400047C35000497424004B18968033
:100770004CBEBC205A0E1BCA6753C21C749DC5AE2A
:100780007C7B60065407681623231207A57CB754A8
:1007900038680A7F101207A212062F7F01227CB749
:1007A000543803241C6CAA2E5407507E4400FF0BBF
:1007B0002A0069120002222D0092D50E104E1080E0
:1007C0007D422D445002B2D54E50806C447CB822FC
:1007D0002C4450120B1C7E40005E507FBE1800005F
:1007E00078040B806816A2D57CB8137C4B7CB5923C
:1007F000E77C5B227E1CFFFF229F11227E24FF806C
:1008000020D5026C456D33227D51AD037D027D21E3
:10081000AD052D12AD352D2122CAF87EF300087CDE
:10082000BF5480B480167EB3000B70307EB3000AD4
:10083000702A7E37000EBE34000268030209117C64
:10084000BF540F14681B14683B0BB16803020911F5
:100850007EB3000D70067EB3000C601E020911808D
:10086000197EB30012B4040F7EB3000D60030209B9
:10087000117EB3000C60030209117E340E3F7E240A
:1008800000FF807D7EB30012B404067EB3000D60CD
:1008900002807E7E73000C7CA75EA00F1B70683602
:1008A0002E707F68040B7078687E2400017CBA602B
:1008B000053E241478FB7E73001A6C665C754D331C
:1008C000680A7E340E417E2400FF80357E340E3F60
:1008D0007E2400FF802B7E2400017CBA60053E242C
:1008E0001478FB7E73001B6C665C754D33680A7E62
:1008F000340E417E2400FF80087E340E3F7E2400AB
:10090000FF7A1F00167E3400027A370014800780B9
:10091000001216A08003121663DAF8227EB30012CA
:10092000BEB00268207EB30008701A7EB3000B7060
:10093000147EB3000D700E7EB3000C70087E37007D
:100940000E4D3368030216A07EB3000AB4015F7433
:10095000047AB30012E47AB3001A7AB3001B740E5F
:100960007E700112165074127E7020121650741090
:100970007E7008121650740E7E7002121650741299
:100980007E702012165074107E7008121650740E6D
:100990007E700112165074126C7712165074137E0A
:1009A0007008121650740E6C771216508010740373
:1009B0007AB3001274FF7AB3001A7AB3001B0216DE
:1009C000AE7EB30012B404247EB30008B4021D7ED0
:1009D000B3000D6003020A5A7EB3000B707C7EB335
:1009E000000A70767E37000E4D336802806C7E639D
:1009F000000C7C765E700F1B60682F2E607F680491
:100A00000B6078567E2400017CB760053E24147884
:100A1000FB7C656E60FF5E63001A7A63001A740ED9
:100A200012165074117E704080247E2400017CB721
:100A300060053E241478FB7C656E60FF5E63001BDE
:100A40007A63001B740E12165074147E7080121696
:100A500050740E6C7712165080030216A00216AE68
:100A60007EB300085480BEB0806803020AEB7EB3F8
:100A7000000B1BB168191468280BB1786E7E340D19
:100A8000EA7E2400FF7A1F00167E34001280547E16
:100A9000340DFC7E2400FF7A1F00167E3400438054
:100AA000427EB3000A1468191468280BB1783C7EA2
:100AB000340DE67E2400FF7A1F00167E3400048089
:100AC000227E340E437E2400FF7A1F00167E3400FF
:100AD0000880107E340DC87E2400FF7A1F00167E29
:100AE00034001E7A370014800580000216A07E377D
:100AF000000EBE37001450047A370014021663CA81
:100B00003B7D607D717A1F002512168340FBC2C0B9
:100B100074031216BB7E1F00257CB51216BB7E1F08
:100B200000257CB61216BB7E2F00251216BB7D3722
:100B30007D2612100AD2C07E1417067E0400FF1212
:100B400014797D367E2400017A1F00296D66803776
:100B50007E0F00297E0B700B147A0F00290A377A5A
:100B60003700537E1416FF7E0400FF1214797D3681
:100B70005E34000FBE34000F780B7E1416F17E0435
:100B800000FF1214790B64BD7638C57E1416EE7E14
:100B90000400FF121479DA3B227EB30012B404245D
:100BA0007EB30008B4021D7EB3000D6003020C2C5E
:100BB0007EB3000B70767EB3000A70707E37000E35
:100BC0004D33680280667E63000C7C765E700F1B7E
:100BD00060682C2E607F68040B6078507E240001D2
:100BE0007CB760053E241478FB7C654E63001A7A5E
:100BF00063001A740E12165074117E701080217EDC
:100C00002400017CB760053E241478FB7C654E63AC
:100C1000001B7A63001B740E12165074147E702031
:100C2000121650740E6C7712165080030216A00232
:100C300016AECAF8740E6C77121650741112163B69
:100C40007CFB30E20F74117C7F5E70FB121650E467
:100C50007AB300137CBF30E40A74117C7F4E70803D
:100C60001216507EB3001324FD68461468480BB278
:100C700078477CBF30E0427E08000874201213B031
:100C80007E37000E1213EA7A37000E7EB300085446
:100C90006024E0680D24E0680E2440780F1210CB29
:100CA00080171215AF80121216C9800D1216A0807F
:100CB00008120FA380031211CBDAF8221212AA1223
:100CC0000D431212F1D2AF74011215FA12156E7E95
:100CD000B30012B404F1300462C2047E14172A7EF9
:100CE0000400FF121479120F389F117E1400807EC9
:100CF000040000120AFF9F1112141F9F117E14009E
:100D0000807E040000120AFF6D777CBF7D372E3491
:100D100001007A71827A6183F00B74BE740080489E
:100D2000E99F117E1400807E04010012117B9F1147
:100D30007E1400807E040000120AFF300089121524
:100D4000CA808453B2FC43B10374807E34FE077EB4
:100D500024007E7A1BB07E34FE077E24007E7E1B3C
:100D6000B030E0F275DC0075F490E46C7712165048
:100D700074017E700812165074077E703F12165070
:100D800074097E703F121650740B7E700712165055
:100D900074016C7712165074027AB30012E47AB3BD
:100DA00000137AB3001A7AB3001B7E3401007E244C
:100DB00000C27A1F006B7AB3006F7AB300707408B8
:100DC0007AB30071A9D7AF221E0353005400430029
:100DD00020005500530042002000530065007200BF
:100DE000690061006C0004030904120100020200A2
:100DF0000040BF3402FF000101020001090243006C
:100E000002010080320904000001020201000524F1
:100E1000001001052401000104240202052406003B
:100E200001070582034000FF09040100020A0000D7
:100E30000007058102400000070501024000000094
:100E40000001000803530054004300CA7BCA6BCA68
:100E50005BCA4BCA3BCA2BCA1BCA0BC0D0C083C0DB
:100E6000827EF1FC740612163B7CEB740212163B78
:100E70007CCB740412163B7CDB7CBE30E103121683
:100E8000CC7CBE30E2031212627CBC30E003120C58
:100E9000327CBC30E10312144C7CBC30E2031214EF
:100EA000A67CBD30E1031200037CBE30E0031200DB
:100EB000CA7AF1FCD082D083D0D0DA0BDA1BDA2BDD
:100EC000DA3BDA4BDA5BDA6BDA7B32CA3B7D737E74
:100ED0003400C87A37005AA9C7AF740E7E70011269
:100EE00016506D66BE74004028057E704080027CFE
:100EF0007F7A730059741112163B30E0107E370070
:100F00005A7D231B247A27005A4D3378E87D162E0C
:100F10001402007E0400017EB300597E7001121697
:100F2000267E7300590A272D629D72BE704050B410
:100F3000D202A9D7AFDA3B22C2C0749F1216BBE41B
:100F40001216BB7AB30025E41216BB7AB30026E46E
:100F50001216BB7AB30027D2C07E1417207E04007D
:100F6000FF1214797E7300250A377A3700537E14F6
:100F7000171A7E0400FF1214797E7300260A377A4E
:100F80003700537E14171A7E0400FF1214797E7303
:100F900000270A377A3700537E1417127E0400FFA9
:100FA000021479CAF8740E6C771216507411121666
:100FB0003B20E1537E370014BE34004028057EF00C
:100FC0004080027CF77E0F00167C7F74201214D1C3
:100FD0000A2F7E3700149D327A3700140A157E1FBF
:100FE00000162D317A1F00167E3700144D33780F0E
:100FF00074117E700A121650E47AB30013800874DC
:10100000117E7002121650DAF8227D427D031B0415
:10101000E47E34FA387E24007E7A1BB07E34FA3ABD
:101020007A1BB07E34FA3B7A1B107E34FA8A7A1B24
:10103000007E34FA3E7A1B907E34FA3D7A1B80742F
:10104000A17E34FA397A1BB07D300B347D24121026
:101050006F7E34FA3A7E24007E7E1BB030E0F2E4EC
:101060007A1BB07E34FA397E24007E7A1BB0227D52
:10107000427D031B04E47E34FA307E24007E7A1B1A
:10108000B07E34FA327A1BB07E34FA337A1B107E8B
:1010900034FA887A1B007E34FA367A1B907E34FA52
:1010A000357A1B8074C07E34FA317A1BB07E34FAF4
:1010B000327E24007E7E1BB030E0F2E47A1BB07EEC
:1010C00034FA317E24007E7A1BB0227EB30009BE42
:1010D000B00D50507EA003A49010DC7302110302E7
:1010E000110602112402110902112402110C02112D
:1010F0000F02111202111502111802111B02111E0A
:101100000211210208190209C1020B9902121802E8
:101110000A600200C702112702091C02137202149E
:10112000FA0216C60216A07EB30008B480227EB36F
:10113000000B701C7EB3000A70167EB3000D701099
:101140007EB3000C700A7E37000EBE3400016803C7
:101150000216A07EB30012B4040A7E340E417E242F
:1011600000FF80087E340E3F7E2400FF7A1F0016A9
:101170007E3400017A370014021663CA3B7A0700F6
:10118000257F317A170027802C121674C2C0740292
:101190001216BB7CBD1216BB7CBE1216BB7CBF12E6
:1011A00016BB7E3700277E27002512106F6D337A1D
:1011B000370027D2C07E3700274D3378CC7E1416F7
:1011C000E27E0400FF121479DA3B22740E6C77126F
:1011D0001650741112163B30E03D7E0F001674203D
:1011E0001213B00A1B7E2700149D217A2700147E5B
:1011F0001F00162D317A1F00167E3700144D3378EC
:101200000E74117E7048121650E47AB300132274E3
:10121000117E704002165022CAF87EB30008702377
:101220007EB3000D701D7EB3000C70177EB3000BF3
:1012300070117EF3000ABEF08050087E37000E4D1C
:101240003368051216A08017E47C7F1216504CFFFD
:1012500068047403800274027AB300121216AEDAC4
:10126000F822E46C7712165074027AB30012E47A12
:10127000B30013740E7E700112165074117E704804
:10128000121650740E7E700212165074117E704841
:10129000121650740E7E700112165074147E7090E7
:1012A000121650740E6C7702165075E900A9D7BA61
:1012B00075EA00759300759400759100759200753C
:1012C000950075960075B10075B20075B30075B4E0
:1012D0000075C90075CA0075CB0075CC0075E100BA
:1012E00075E20074F07E34FE247E24007E7A1BB00A
:1012F00022A9D3BBA9C2BB75981074107E34FDC05F
:101300007E24007E7A1BB07E1BB054BF7A1BB07E59
:101310001BB054FB7A1BB07E1B307A1B3074027EEC
:1013200014FDC37E04007E7A0BB07E1BB044087AA5
:101330001BB0227584017E44041FE47A49B01B442B
:1013400078F97EF800717E0400FF7E14174C0B0ABA
:10135000405D44681A692000020B0E0B44800A7E2F
:101360000BB07A29B00B240B0C1B4478F280DF02FF
:101370000CBC7EB30012B4041D7EB30008B4811609
:101380007EB3000B70107EB3000D700A7E37000E26
:10139000BE34000168030216A07E340E3F7E240096
:1013A000FF7A1F00167E3400017A3700140216639C
:1013B000CA3B7F30CAB80BFD741612163B7AFBB0DD
:1013C00039BFFFFF800C29BFFFFE12163B7A3BB0EE
:1013D0000B747EFBA07CBA147AFBB04CAA78E72988
:1013E000BFFFFF9EF80003DA3B227A3700217E34EC
:1013F00000227E2400007E1B307E3400237E2400E9
:10140000007A1B307E3400217E2400007E1B307E5B
:101410003400247E2400007A1B307E37002322CA49
:101420003B7F31121674C2C074201216BB7CB512F9
:1014300016BB7CB61216BB7CBF1216BBD2C07E1484
:1014400016D17E0400FF121479DA3B22CAF8740E1A
:101450007E7001121650741112163B7CFB30E508A9
:1014600074117E70401216507CBF30E20774116C0C
:1014700077121650C202DAF822CA797A0F00557E26
:101480003400557E2400007A1F00597E1402007E2D
:101490000400017E1F00551200CE7D730A37120E24
:1014A000CB7D37DA7922CAF8740E7E70021216509C
:1014B000741112163B7CFB30E50874117E704012EB
:1014C00016507CBF30E20774116C77121650DAF8B0
:1014D00022CA3BCA787F30CAB8800B7EFBB07E3B05
:1014E000700B7412165029AFFFFF7CBA1439BFFF7E
:1014F000FF4CAA78E61BFDDA3B227EB30012B4044F
:101500001B7EB30008B401147EB3000B700E7EB3D3
:10151000000D70087E37000E4D3368030216A002DE
:1015200016AE7EB30012B404097EB30008BEB0A1AB
:1015300068030216A07E18006B7A1F00167E370023
:101540000E7A3700140216637EB30012B404097ECB
:10155000B30008BEB02168030216A07E18006B7AA3
:101560001F00167E37000E7A37001402169220B242
:101570001820031D7E3700610B347A370061BE34BA
:101580000032400DD203D204226D337A370061C29B
:101590000322801200000000000000000000000094
:1015A0000000000000007D231B344D2278E6227EDF
:1015B000B3000924DF680A14680A0BB17809021520
:1015C000480215220216100216A0A9C7AF740E7E9B
:1015D000700112165074146C77121650C200A9D7FD
:1015E000AF22CA797D7380077E3403E81215927D9D
:1015F000371B744D3378F1DA79227CAB7E440FA02F
:101600007D341B347D4378F87CBA147CAB78ED22B2
:101610007EB30012B404097EB30008BEB021680393
:101620000216A00216AE7CA77C7B0A5A2E5400201C
:101630001214D174117E70010216507CABE5FC20AF
:10164000E7FB7CBA4480F5FCE5FC20E7FBE5EC22F7
:101650007CA77C7BE5FC20E7FB7CB7547FF5FC7A1C
:10166000A1EC2274037AB3001374117E7040121639
:1016700050020FA312168340FBC2C074061216BBA1
:10168000D2C022C2C074051216BBE41216BBD2C06F
:10169000132274047AB3001374117E704002165042
:1016A00074057AB3001374117E7060021650E47AE8
:1016B000B3001374117E7048021650C2997AB19922
:1016C0003099FDE599220216A00216A022283029A1
:1016D00000457261736520536563746F7220210D3C
:1016E0000A0050726F6772616D20210D0A000D0AA9
:1016F000000D0A202020202020202020202000254E
:101700003032627820005265616444617461203A2D
:10171000200025303262780D0A00253032627800D0
:10172000526561644944203A20000D0A55534152E4
:10173000545F5350495F444D4120746573742021B8
:101740000D0A004053544349535023000004005DE8
:1017500000FF17430004006300000000000400675E
:0B17600000000000000100110000006C
:00000001FF
