:1000000002011BA9C48EA9C38EA9D28E7CB6F5D6D7
:0B0010007F21F5D7A9C2AFA9D48E2232
:100023000200EA75E900A9D7BA75EA00759300756D
:10003300940075910075920075950075960075B1E1
:100043000075B20075B30075B40075C90075CA00B8
:1000530075CB0075CC0075E10075E20074021200E7
:10006300A2D2AF1201457E1401547E0400FF120197
:10007300317E7300A1BE7300A268F62000F37EA355
:1000830000A20A3A09B30021F599D2007CBA047A96
:10009300B300A2BEB08040D9E47AB300A280D27C80
:1000A3007BA5BF020CA9D08E7E18FFAA1200038085
:1000B30018C28EA9C08EA9C689A9D68E5389CF75B9
:1000C3008DFF758BAAC2ABD28EE598543F4440F5A1
:1000D30098D2ACD29C53A23F43A240C200E47AB36D
:1000E30000A27AB300A122CA2BC0D130981EC298B5
:1000F3007EA1997EB300A10A4B19A40021047AB30F
:1001030000A1BEB0804005E47AB300A1309904C2D7
:1001130099C200D0D1DA2B327584017E44041FE4E6
:100123007A49B01B4478F97EF800A2020026800CBD
:100133007E0BB0F599D2002000FD0B147E0BB0703E
:10014300EF2200007E34C37E7E2401C91B1C78FC91
:1001530022414938303531552055415254312054CC
:100163006573742050726F6772616D6D65210D0A3E
:01017300008B
:00000001FF
