:10000000021EE3C2851220BDD285220222777F71B3
:100010007CAB7E34F9067E24007E7E1BB020E5F2A8
:100020007E34F9177E24007E7E1BB054F37A1BB019
:100030007E14F9157E04007E7E0BB054CF44207AE6
:100040000BB07ED4F9167EC4007E7E6BB054837AEA
:100050006BB07E0BB054FC44017A0BB07E0BB054F5
:10006000F344047A0BB07E0BB0543F7A0BB07E1B86
:10007000B054FC7A1BB07E34F9147A1BA07D1E7E2E
:1000800034F91B7A1B207E34F91A7A1B307D1F7ECF
:1000900034F9197A1B207D3F7E34F9187A1B307EA3
:1000A00034F9067E24007E7E1BB030E1F274027EBD
:1000B00034F9087E24007E7A1BB0227CAB74317C3C
:1000C0007A1214617E3400640223E1021A6CCA7948
:1000D0007D407CA37F717C1B7E6F01347E34F906EA
:1000E0007E24007E7E1BB020E5F27E34F9177E244C
:1000F000007E7E1BB054F344047A1BB07D141B14A5
:100100007EB4F9117EA4007E7A5B207EB4F9107A69
:100110005B307EB4F9157E5BB054CF44207A5BB07F
:100120005EA01F3EA03EA07E94F9167E84007E7ED7
:100130004B005E00834C0A7A4B007E5BB054FC445B
:10014000017A5BB07E5BB054F344047A5BB07E5BB3
:10015000B0543F7A5BB07E1BB044037A1BB07E3450
:10016000F9147A1B107D1E7E34F91B7A1B207E3415
:10017000F91A7A1B307D1F7E34F9197A1B207D3FD6
:100180007E34F9187A1B307E34F9067E24007E7E98
:100190001BB030E1F274027E34F9087E24007E7ACE
:1001A0001BB080157E34F9207E24007E7E1B707A81
:1001B00071E07A6B700BD41B444D4478E7800B7E62
:1001C00034F9207E24007E7E1BB07E34F9077E2425
:1001D000007E7E1BB0543F78E6DA7922C2857E34F9
:1001E000FE547E24007E7A1BB074847E34FE527AE4
:1001F0001BB07E34FE537E24007E7E1BB030E0F2C6
:10020000E47A1BB0D28522D2852222021F607F7041
:100210007F517EC400007ED401557E9402210202EB
:10022000774005E47A7BB0227A7BB00B7C227F702A
:100230007F517E6F00007E94023D0202774005E40C
:100240007A7BB0227A7BB00B7C22540F2490D4347A
:1002500040D430F30CBEB0414007BEB05B50022426
:10026000204CCC68021BC00B84D389944CCC680B07
:10027000742012026180F5CA3B6D889F337CAE7E8C
:100280005BB00B5C7007C37D38DA3B8994B4256999
:10029000C2F37E5BB00B5CA5F824D0BEB00A501B45
:1002A0007E500A20F60DAC5CA52D7CCB70034EF081
:1002B0000180DDAC5DA52D7CDB80D524CFBEB01ADE
:1002C000A5E850055E00DFD2F390064CA3E49360EE
:1002D00011BCB078F77417934CAB30F6B34EF08086
:1002E00080AEA3E4936010BCB078F77416937C3BA7
:1002F0007423937C2B89147CB080137420120261C8
:1003000020F205BEC00250F31B6D29B60001120297
:100310006102026C1B6E691600020B6A00BE0800C7
:100320000078087E0400FF7E14240720F21E4CCCC7
:10033000681A7F10E47E1B804C8868070B1C04BC85
:10034000BD78F2C2F6CA0B12044BDA0B7E0BB0601A
:10035000C0CA0B120261DA0B0B0C4CDD68EE1BD02D
:1003600078EA80ADD2F07E101080037E10085EB077
:100370005F800AD2F67E100A80057E100AC2F66DF2
:10038000119F117E00201B6C7E6B7030F6021A37B5
:1003900020F1051B6C7E6B6030F6041A261A24309F
:1003A000F0051B6D0B6A20A5EC3382F692F6500A1D
:1003B0007CEA9F229F217F127CAE4C44780F7C45C3
:1003C0007C567C676C772E00F878EF80122F117CBA
:1003D000B3337C3B9CB140047C3B0B70A5D8EE7CD6
:1003E000B230E005DAB8C44C3BCA380B207E00209E
:1003F0007E3000BE18000078C1BE1008780730F4C7
:1004000004C2F480B5CA287CB2BCBD38027CBD12DF
:10041000044BDA28BC2D500A1BD0E4CA2812024A29
:1004200080F07CB213DAB84004C4CAB8C4CA28BE8B
:10043000F08040095CDD7805A5DA0260065EF07F99
:1004400012024ADA28A5DADA02026CBEF001680F5D
:1004500030F402240220F50620F70330F6010420D0
:10046000F229BCBC5025CAB87CBF13B0E67420503A
:100470001174307C8A5E80F0680812048B5EA00FD5
:100480008003120261DAB8BCBC78DB30F40F743040
:10049000120261745830F302747812026130F6056A
:1004A000742D020261742B20F5F8742020F7F322DA
:1004B0001B6C7E6BB010F1021B6C20F60B30E70456
:1004C000F404D2F27CCB800520E7057CDB020290AD
:1004D0005EF07F80F81B6E691600020B6A0030F038
:1004E000076D221B0A200B0D1B0A8002027BE46CA5
:1004F00022BE3007500B7F1F2D312E34FFF77E397F
:10050000B0227CBF20E7A8742E4EF0800202611258
:100510000635403D7CBD7003047CDB12074C7C3DFE
:100520004C3368101B307CBE20E4091204EE7004CA
:100530004C3378F07CBD7CD3BEA0FD481CBCAB58CE
:1005400018E49CBA2CB31801E47CDB0205D6120631
:1005500035406E7CBD0412074C7AFBA07CAE7CBD9E
:10056000A2F492F0C2F44002600104240512044B8C
:100570007E30FF0B301204EECA3812024A20F0041B
:100580004CDD6803120502DA38BC3D78E6740E12C1
:10059000024A742B7EFBA030F707742D6EA0FF0B70
:1005A000A07AFBA01202617EA00A7EFBB0847AFBD7
:1005B000A012024A7EFBB012024A9EF80008020214
:1005C0006CD2F27ED00002032B12063540F37CBAC7
:1005D0002CBD0412074C7AFBA07CBA7CAE30E7013C
:1005E000E40420F4044CDD6805D2F0C2F4042CBD10
:1005F00012044B6C337EFBB0601B20E712147AFBB5
:10060000B01204EECA3812024ADA380B3080E6041F
:100610007AFBB01B301204EECA3812024A4CDD6875
:10062000071205021BD080E19EF8000930F003128A
:10063000050202026C7CEA7CAF10F7037ED0067CD8
:10064000FA1B6E693600020B6A200206942D2B20DD
:100650004C4248232E0053584F44494355502A4E8C
:1006600046454700042080010200104014666B7369
:1006700073007A64B0D5C94E0F0303030303030369
:100680000304040505054E614E002B494E46002D1E
:10069000494E46007D522D557CBE92E67CEB7CBADD
:1006A000601F0470287CB5C2E77E0400FF60067EF0
:1006B000140686D3227E14068F40047E14068AD345
:1006C00022DA099F22CA2BCA2BC3CA09220A0A7E30
:1006D000144D10AD109E083AF09E10267CB5C2E76E
:1006E0007EA0567C9BA46E54FFFF2E54C511ACA96E
:1006F0002D15E4A539CAB8CA1B20E70A1208E0DAAA
:100700001B12082F800AF4041208E0DA1B12078F6C
:10071000DAA87CB5337CB4334E50806C4424822FED
:10072000111478FBDA497407BE400A40099E400A5A
:10073000CA0201140BA0CA486C442F117F012F116B
:100740002F112F101478EFCA48CA49227F0F20E7D3
:100750003ABEB007400274070A0B2D109E14000920
:100760007E19B02EB0FB501F4C116817E47A19B0F7
:100770001B147E19B0047A19B0B40A0BE47A19B0CC
:10078000A5D9ED0BA074017A19B0225EE0BF225DFD
:1007900022680D5D0078122D220B4068099F1122FE
:1007A0002D000B0078F90209541209175C800B80A8
:1007B0006808248150072CB0500A02095C2CB04014
:1007C000030209597C8B5D1178267CB17CA5BE1093
:1007D00080680A5D33780DA5BD80057F100209464B
:1007E0006D0080307F017C5B7CB17CA5AD128024E4
:1007F0005D337806A5BD80F080E1CA887D41AD43B8
:100800007CB17CA5AD122D1450020B047C5BAD2392
:100810002F01DA88A42D05BE008040060B807804E5
:1008200080982F007C437C507C617C72020930BE32
:1008300024FFFF6806BE04FFFF7803020954120973
:10084000175CB00468F57CB8A54868EF7CB8700305
:100850009F1122A5B8000302095C2E008150079C5D
:100860008038070209599C8050ED0A51C2E74D516A
:1008700078030209467E5400807E901A6C00800640
:100880001B9068142F11BF1040049F104CAB033015
:10089000E7EECAA86CAA80E8DA39DA587C4ABE507A
:1008A00080500A1B8068BC2F1150020B7002093067
:1008B0003F8000004120000042C80000447A000050
:1008C000461C400047C35000497424004B189680D2
:1008D0004CBEBC205A0E1BCA6753C21C749DC5AEC9
:1008E0007C7B60065407681623231209057CB754E5
:1008F00038680A7F1012090212078F7F01227CB725
:10090000543803241C6CAA2E5408B07E4400FF0BFC
:100910002A0069120002222D0092D50E104E10807E
:100920007D422D445002B2D54E50806C447CB8229A
:100930002C4450120B1C7E40005E507FBE180000FD
:1009400078040B806816A2D57CB8137C4B7CB592DA
:10095000E77C5B227E1CFFFF229F11227E24FF800A
:1009600020D5026C456D33227D51AD037D027D2182
:10097000AD052D12AD352D2122CA79200003020CC0
:10098000E86CAA802B0A3A2E3402407A71827A618E
:10099000837EEB707E6301567CB6047AB301560AFF
:1009A000462E4401007A91827A81837AEB700BA003
:1009B0007EB30010BCBA38CD1222AA020CE8122174
:1009C000577CFB7EE301637CBE14BEB0384003025B
:1009D0000A827EA003A49009DA73020A90020A9A9E
:1009E000020AA4020A82020A82020A82020A82021D
:1009F0000A82020A82020A82020A82020A82020A27
:100A000082020A82020A82020B73020B73020B73C8
:100A1000020B73020A82020A82020A82020A82021C
:100A20000A82020A82020A82020A82020A82020AF6
:100A300082020A82020A82020B73020B73020B7398
:100A4000020B73020C06020C06020C06020C0602D4
:100A50000A82020A82020A82020A82020A82020AC6
:100A600082020A82020A82020B73020B73020B7368
:100A7000020B73020C06020C06020C06020C0602A4
:100A80000C9ABEF04178057401020CE4E4020CE417
:100A9000BEF04978ED7402020CE4BEF04378E374D2
:100AA00003020CE49F117A1F01657A1F01697A37EE
:100AB000016D7AF301647CBF2410BEB00850C37E80
:100AC000A003A4900AC773020ADF020B15020B4CA5
:100AD000020B51020B56020B6E020B6E020B6E7E66
:100AE00014242A7E0400FF7E340003121EA012216B
:100AF000B97F017E3400007E240001791100021BC1
:100B00001A007E1400017E0400017E340003121ED0
:100B1000A0E4020CE47E14242A7E0400FF7E34004C
:100B200003121EA012233E900000F01223629000D8
:100B300001F0122350900002F07E1400007E0400A9
:100B4000017E340003121EA0E4020CE47420020CA7
:100B5000E47430020CE4C2051223187E14242A7EA9
:100B60000400FF7E340003121EA0E4020CE47410A3
:100B7000020CE47E1F01657C457C567C676C777AAD
:100B80001F01650A3F4E3701677E2701657A1F0105
:100B9000657CBE047AB30163B414028003020CE8DE
:100BA0007EB30164240A682614683F0BB16803020F
:100BB0000A82C2057E1F01651221D57E14242A7E79
:100BC0000400FF7E340003121EA0E4020CE4C20500
:100BD0007E1F01651221F07E14242A7E0400FF7E10
:100BE000340003121EA0E4020CE4C2057E1F01655E
:100BF00012220B7E14242A7E0400FF7E340003128E
:100C00001EA0E4020CE47E1F01697C457C567C67D3
:100C10006C777A1F01690A3F4E37016B7E270169A5
:100C20007A1F01697CBE047AB30163B42802800391
:100C3000020CE87E14242A7E0400FF7E3400031296
:100C40001EA0804B7E1F0169BE18004050047CE747
:100C500080037EE0400A3E7A3701317E1F01657EC7
:100C60001400007E040001121C4E7E1400007E045D
:100C700000010A3E121EA00A1E6D007E1F01652F94
:100C8000107A1F01657E1F01699F107A1F01697E1E
:100C90001F01694D2378ADE4804A7E37016D7D23C5
:100CA0000B247A27016D2E3400007A71827A6183D9
:100CB0007AEBF07E17016D6D007E1F0169BF014068
:100CC000277A3701317E1F01657E1400007E040003
:100CD0000112179D7E14242A7E0400FF7E34000337
:100CE000121EA0E47AB301637E730156BE730155F0
:100CF00068030209BEDA792212222674CF1201DCBF
:100D0000E412000374D9120003743012000374ED6E
:100D10001201DC74641200037403120003741212D3
:100D20000003748112000374E81201DC7485120060
:100D3000037410120003747A12000374CB1201DCE6
:100D40007439120003742C120003E412000374348B
:100D5000120003740212000374F71201DC742012F3
:100D6000000374EA1201DCE4120003E412000374CD
:100D7000C01201DC741B12000374C11201DC741276
:100D800012000374C51201DC7408120003742612E9
:100D9000000374C71201DC74B71200037436120129
:100DA000DC7408120003743A1201DC74551200035B
:100DB00074B11201DCE4120003741A12000374B659
:100DC0001201DC740A12000374A212000374F212FE
:100DD00001DCE412000374261201DC74011200032A
:100DE00074E01201DC740F120003741D120003740E
:100DF0001A120003740A120003740D120003740720
:100E000012000374491200037466120003743B124B
:100E1000000374071200037411120003740112001E
:100E20000374091200037405120003740412000312
:100E300074E11201DCE41200037418120003741D43
:100E40001200037402120003740F120003740412E0
:100E5000000374361200037413120003744C120062
:100E60000374071200037413120003740F120003BB
:100E7000742E120003742F12000374051200037401
:100E80002B1201DCE4120003E412000374011200CF
:100E900003743F120003742A1201DCE4120003E41D
:100EA000120003E412000374EF1200037411120124
:100EB000DC7E3400781222C274291201DC743612EE
:100EC00001DC7468020003CAF83004030210097ED2
:100ED0001701251A021A007E1F0025BF0140066D6A
:100EE000337A3701257E1701257D010B047A07012E
:100EF000253E143E144931002B492100297A1F0157
:100F0000216D337A3701277E34F9067E24007E7EF8
:100F10001BB020E5F27E14F9177E04007E7E0BB034
:100F200054F344047A0BB074C77E34F9117E240064
:100F30007E7A1BB074FF7E34F9107A1BB07E34F9D0
:100F4000157E1BB054CF44207A1BB07EF4F9167E78
:100F5000E4007E7E7BB0548344207A7BB07E1BB05D
:100F600054FC7A1BB07E1BB054F37A1BB07E1BB0CE
:100F7000543F7A1BB07E0BB044037A0BB0746B7E87
:100F800014F9147A0BB07E1BB054FC44017A1BB0E8
:100F90007E1BB054F37A1BB07E2F01217E14F91B07
:100FA0007A0B807E14F91A7A0B907E14F9197A0B59
:100FB000A07E14F9187A0BB07E1BB054F344047A67
:100FC0001BB0121FCE74877E34FAF07E24007E7A26
:100FD0001BB074A07E34FAD07A1BB0E47E34FAD20F
:100FE0007A1BB074FF7E34FAD37A1BB074C77E3498
:100FF000FADB7A1BB074A07E34FA717A1BB074A14C
:101000007E34FAD17A1BB0D204DAF822CAF87EF321
:1010100000087CBF5480B480167EB3000B70307E15
:10102000B3000A702A7E37000EBE34000268030245
:1010300011047CBF540F14681B14683B0BB1680388
:101040000211047EB3000D70067EB3000C601E0218
:10105000110480197EB30012B4040F7EB3000D603A
:10106000030211047EB3000C60030211047E341AE3
:10107000607E2400FF807D7EB30012B404067EB340
:10108000000D6002807E7E73000C7CA75EA00F1BAB
:101090007068362E707F68040B7078687E240001BB
:1010A0007CBA60053E241478FB7E73001A6C665C83
:1010B000754D33680A7E341A627E2400FF80357EC7
:1010C000341A607E2400FF802B7E2400017CBA60ED
:1010D000053E241478FB7E73001B6C665C754D33F3
:1010E000680A7E341A627E2400FF80087E341A600B
:1010F0007E2400FF7A1F00167E3400027A37001427
:10110000800780001223B48003122385DAF8227F3F
:10111000707F617CAB7E4701347E34F9067E24000B
:101120007E7E1BB020E5F27E34F9177E24007E7EA1
:101130001BB054F37A1BB07D141B140A027EB4F961
:10114000117EA4007E7A5B207CB37E14F9107E04AD
:10115000007E7A0BB07E14F9157E0BB054CF44207C
:101160007A0BB07EB4F9167E5BB054837A5BB07EA6
:101170000BB054FC44017A0BB07E0BB054F3440422
:101180007A0BB07E0BB0543F7A0BB07E1BB054FC90
:1011900044017A1BB07E34F9147A1BA07D1C7E3486
:1011A000F91B7A1B207E34F91A7A1B307D1D7E34A0
:1011B000F9197A1B207D3D7E34F9187A1B30801294
:1011C0007E7B307E34F9207E24007E7A1B300BF447
:1011D0001B444D4478EA7E34F9067E24007E7E1B53
:1011E000B030E1F274027E34F9087E24007E7A1B6E
:1011F000B02243B40953B3F67E34FE247E24007E2D
:101200007E1BB054F07A1BB07E34FE257E1BB0549A
:10121000F37A1BB07E34FE147E1BB0440F7A1BB0F1
:101220007E34FE157E1BB0440C7A1BB07E34FE4C1F
:101230007E1BB054F97A1BB07E34FE4D7E1BB05439
:10124000F37A1BB0E5BF54FC4401F5BFD2C0D2C352
:10125000D2C1D2C2D2CAD2CB7E34F9067E24007E5D
:101260007E1BB020E5F2E47E34F9097E24007E7A0C
:101270001BB07E34F90A7A1BB0741F7E34F9017AF0
:101280001BB0E47E34F9027A1BB074037E34F90398
:101290007A1BB07E34F9047E1BB0548F44107A1B45
:1012A000B07E1BB044017A1BB074197E34F9057A04
:1012B0001BB07E34F9177E1BB054EF7A1BB07E341E
:1012C000F9007E1BB044017A1BB0227D437F707C05
:1012D000AB7E34F9067E24007E7E1BB020E5F27ED4
:1012E00034F9177E24007E7E1BB054F344047A1B2D
:1012F000B07D141B140A027ED4F9117EC4007E7ADC
:101300006B207CB37E14F9107E04007E7A0BB07ED5
:1013100014F9167E0BB054837A0BB07E14F9157E47
:101320000BB054FC44017A0BB07E0BB054F37A0B33
:10133000B07E0BB0543F7A0BB07E1BB054FC44011E
:101340007A1BB07E34F9147A1BA07E34F9067E2411
:10135000007E7E1BB030E1F274027E34F9087E24F8
:10136000007E7A1BB080157E34F9207E24007E7EBC
:101370001B707A71E07A7B700BF41B444D4478E764
:10138000800B7E34F9207E24007E7E1BB07E34F9F3
:10139000077E24007E7E1BB0543F78E622CA797413
:1013A0000E7E700112232B74141222EF7C6B30E638
:1013B0000874147E708012232B7CB620E003021484
:1013C0005E7E1402407E040001742112217A7AB3F9
:1013D00000107E1F01574D23780302145C6CFF80C0
:1013E000737EB300111A3B7E0F01572D317D207E95
:1013F0001BA00A4F2E4402407A91827A81837EEBB1
:10140000E0BCEA7839047AB300117E7300111A3710
:101410002D317D207E1BB0703974146C7712232B14
:1014200075F40075DC00E47E34FE077E24007E7ACD
:101430001BB07E34000A12230475C76080FE7E1F35
:1014400001577E1B70BCE7780474018001E47AB315
:1014500000110BF07E730010BC7F3885D200DA7962
:10146000227CA77C3B7E34F9067E24007E7E1BB066
:1014700020E5F27E34F9177E24007E7E1BB054F303
:101480007A1BB07EF4F9157EE4007E7E7BB054CFEB
:101490007A7BB07ED4F9167EC4007E7E6BB0548316
:1014A0007A6BB07E7BB054FC44017A7BB07E7BB01B
:1014B00054F344047A7BB07E7BB0543F7A7BB07E99
:1014C0001BB054FC7A1BB07E34F9147A1B30E47ED6
:1014D00014F91B7E04007E7A0BB07E14F91A7A0B85
:1014E000B07E34F9197A1BB07E34F9187A1BA07ECD
:1014F00034F9067E24007E7E1BB030E1F274027E59
:1015000034F9087E24007E7A1BB0227D437CAB7EBA
:1015100034F9067E24007E7E1BB020E5F27E34F98D
:10152000177E24007E7E1BB054F37A1BB07E14F924
:10153000157E04007E7E0BB054CF44107A0BB07E33
:10154000F4F9167EE4007E7E7BB054837A7BB07E15
:101550000BB054FC44017A0BB07E0BB054F344043E
:101560007A0BB07E0BB0543F7A0BB07E1BB054FCAC
:101570007A1BB07E34F9147A1BA0E47E14F91B7A2E
:101580000BB07E14F91A7A0BB07E34F9197A1B80ED
:101590007E34F9187A1B907E34F9067E24007E7E14
:1015A0001BB030E1F274027E34F9087E24007E7AAA
:1015B0001BB0227EB30012B404277EB30008B4022D
:1015C000207EB3000D60030216537EB3000B600350
:1015D0000216537EB3000A707A7E37000E4D3368D0
:1015E0000280707E63000C7C765E700F1B60683139
:1015F0002E607F68040B60785A7E2400017CB760FF
:10160000053E241478FB7CB57C6B6E60FF5E630046
:101610001A7A63001A740E12232B74117E704080A4
:10162000267E2400017CB760053E241478FB7CB53F
:101630007C6B6E60FF5E63001B7A63001B740E128E
:10164000232B74147E708012232B740E6C7712235C
:101650002B80030223B40223C27EB30012BEB00269
:1016600068207EB30008701A7EB3000B70147EB33E
:10167000000D700E7EB3000C70087E37000E4D33E7
:1016800068030223B47EB3000AB4015F74047AB322
:101690000012E47AB3001A7AB3001B740E7E700154
:1016A00012232B74127E702012232B74107E70086C
:1016B00012232B740E7E700212232B74127E702064
:1016C00012232B74107E700812232B740E7E70016F
:1016D00012232B74126C7712232B74137E70081252
:1016E000232B740E6C7712232B801074037AB300B3
:1016F0001274FF7AB3001A7AB3001B0223C27EB3BE
:1017000000085480BEB08068030217897EB3000BC6
:101710001BB168191468280BB1786E7E341A0B7EE1
:101720002400FF7A1F00167E34001280547E341A83
:101730001D7E2400FF7A1F00167E34004380427E07
:10174000B3000A1468191468280BB1783C7E341A67
:10175000077E2400FF7A1F00167E34000480227E5C
:10176000341A647E2400FF7A1F00167E340008803D
:10177000107E3419E97E2400FF7A1F00167E3400A3
:101780001E7A370014800580000223B47E37000ED5
:10179000BE37001450047A370014022385CA3B7AFE
:1017A0000F012D7F31807A74207AB301337E3701A7
:1017B00031BE34002050047A7301337D176C226DE2
:1017C000007E7301330A376D222F10BE18010040CE
:1017D0000A7E1801009F107A7301337E7301330A69
:1017E000377A37013474027F137E0F012D12110FE7
:1017F0007E7301330A177E0701319D017A0701319B
:101800000A376D222F317E1F012D2D317A1F012DB8
:101810007E370131BE340000280A7E340064122372
:10182000E11223F37E370131BE3400002803021792
:10183000A77E3400641223E1DA3B227EB30012B4A7
:1018400004247EB30008B4021D7EB3000D600302C1
:1018500018CE7EB3000B70767EB3000A70707E37B0
:10186000000E4D33680280667E63000C7C765E70ED
:101870000F1B60682C2E607F68040B6078507E24FC
:1018800000017CB760053E241478FB7C654E630044
:101890001A7A63001A740E12232B74117E70108052
:1018A000217E2400017CB760053E241478FB7C6512
:1018B0004E63001B7A63001B740E12232B74147E7C
:1018C000702012232B740E6C7712232B80030223BB
:1018D000B40223C2CAF87E1F01212E18C8007A1F45
:1018E00001217E3701270B347A370127BE340003EC
:1018F00058497E34F9157E24007E7E1BB054F37A5D
:101900001BB07E2F01217E14F91B7E04007E7A0B12
:10191000807E14F91A7A0B907E14F9197A0BA07E46
:1019200014F9187A0BB07E1BB054F344047A1BB040
:1019300074A17E34FAD17A1BB08026C204E47E34CE
:10194000FAD17E24007E7A1BB07E34FAD07A1BB0A6
:101950007E34FA717A1BB07E34FAF07A1BB0120230
:1019600007DAF82253B2FC43B10374807E34FE07D9
:101970007E24007E7A1BB07E34FE077E24007E7EAD
:101980001BB030E0F275DC0075F490E46C77122344
:101990002B74017E700812232B74077E703F122374
:1019A0002B74097E703F12232B740B7E7007122359
:1019B0002B74016C7712232B74027AB30012E47A31
:1019C000B300137AB3001A7AB3001B7E3401007E91
:1019D0002400C27A1F016F7AB301737AB301747461
:1019E000087AB30175A9D7AF221E035300540043F0
:1019F0000020005500530042002000530065007293
:101A000000690061006C0004030904120100020275
:101A1000000040BF3402FF0001010200010902433F
:101A200000020100803209040000010202010005E9
:101A300024001001052401000104240202052406EB
:101A40000001070582034000FF09040100020A00AB
:101A50000000070581024000000705010240000068
:101A6000000001000803530054004300CA7BCA6B06
:101A7000CA5BCA4BCA3BCA2BCA1BCA0BC0D0C083A5
:101A8000C0827EF1FC74061222EF7CEB74021222FB
:101A9000EF7CCB74041222EF7CDB7CBE30E10312BE
:101AA00024067CBE30E203121E587CBC30E00312D8
:101AB0001AEC7CBC30E10312206C7CBC30E20312D7
:101AC00020E47CBD30E10312139D7CBE30E00312A4
:101AD000020A7AF1FCD082D083D0D0DA0BDA1BDA9A
:101AE0002BDA3BDA4BDA5BDA6BDA7B32740E6C772B
:101AF00012232B74111222EF7C6B30E20F74117CD5
:101B0000765E70FB12232BE47AB300137CB630E4CC
:101B10000A74117C764E708012232B7EB30013243E
:101B2000FD683E14683E0BB2783D7CB630E0387EEE
:101B3000080008742012217A7E37000E1220037AE2
:101B400037000E7EB30008546024E0680B24E06880
:101B50000A24407809021D0F02225C02240302239A
:101B6000B4021CAF021DBF227CAB7E34F9067E247A
:101B7000007E7E1BB020E5F27E34F9177E24007EC5
:101B80007E1BB054F37A1BB07E14F9167E04007EDF
:101B90007E0BB054837A0BB07E14F9157E0BB054D3
:101BA000FC44017A0BB07E0BB054F37A0BB07E0B81
:101BB000B0543F7A0BB07E1BB054FC7A1BB07E341D
:101BC000F9147A1BA07E34F9067E24007E7E1BB0B9
:101BD00030E1F274027E34F9087E24007E7A1BB074
:101BE0002275BA8075E90075EA0075940075930056
:101BF00075920075910075960075950075B2007527
:101C0000B10075B40075B30075CA0075C900122320
:101C1000741211F2121F98120CF81223E8D2AF12AC
:101C200020381223D920B30512097980FB7E3401B4
:101C3000007A3701319F117E080021121C4E6D334E
:101C40007A3701253003FDC203120EC780F6CA3B66
:101C50007F307A1F012D804A74207AB301337E379A
:101C60000131BE34002050047A7301337A3F0134CD
:101C7000746B7E1F012D7E30087E2301330A021211
:101C800000CE7E5301330A357E1701319D137A173A
:101C900001310A556D447E0F012D2F027A0F012D5F
:101CA0002D737E370131BE34000038ACDA3B22742C
:101CB0000E6C7712232B74111222EF20E1507E3725
:101CC0000014BE34004028057E404080027C477EE0
:101CD0000F00167C7474201222410A147E370014FF
:101CE0009D317A3700147E1F00162D317A1F0016A1
:101CF0007E3700144D33780E74117E700A12232B38
:101D0000E47AB300132274117E700202232B227E28
:101D1000B30009BEB00D50507EA003A4901D2073E7
:101D2000021D47021D4A021D68021D4D021D680268
:101D30001D50021D53021D56021D59021D5C021D3D
:101D40005F021D62021D6502100C0215B302183BF2
:101D5000021E0E0216FE0223FD021D6B0216590220
:101D60001F220220950224000223B47EB30008B48F
:101D700080227EB3000B701C7EB3000A70167EB307
:101D8000000D70107EB3000C700A7E37000EBE345A
:101D9000000168030223B47EB30012B4040A7E3447
:101DA0001A627E2400FF80087E341A607E2400FFC1
:101DB0007A1F00167E3400017A37001402238574DE
:101DC0000E6C7712232B74111222EF30E03F7E0F3E
:101DD0000016742012217A7C7B0A177E2700149D3E
:101DE000217A2700147E1F00162D317A1F00167EDF
:101DF0003700144D33780E74117E704812232BE493
:101E00007AB300132274117E704002232B22CAF889
:101E10007EB3000870237EB3000D701D7EB3000CEE
:101E200070177EB3000B70117EF3000ABEF0805075
:101E3000087E37000E4D3368051223B48017E47C0A
:101E40007F12232B4CFF68047403800274027AB360
:101E500000121223C2DAF822E46C7712232B7402E8
:101E60007AB30012E47AB30013740E7E7001122369
:101E70002B74117E704812232B740E7E7002122375
:101E80002B74117E704812232B740E7E7001122366
:101E90002B74147E709012232B740E6C7702232BFC
:101EA0007D437F60A9C7AF740E7E700112232B6D36
:101EB000BBBE44004008057E404080027C4974114E
:101EC0001222EF20E0F87F062D1B7CB47E700112F9
:101ED00022910A542DB59D45BE404050D4D202A94E
:101EE000D7AF227584017E44041FE47A49B01B44B5
:101EF00078F97EF801757E0400FF7E14240B0B0A2E
:101F0000405D44681A692000020B0E0B44800A7E73
:101F10000BB07A29B00B240B0C1B4478F280DF0243
:101F200023967EB30012B4041D7EB30008B481165C
:101F30007EB3000B70107EB3000D700A7E37000E6A
:101F4000BE34000168030223B47E341A607E24008C
:101F5000FF7A1F00167E3400017A370014022385B1
:101F6000CA7BCA6BCA5BCA4BCA2BCA1BCA0BC0D07E
:101F7000C083C082E47E34FAD27E24007E7A1BB015
:101F80001218D4D082D083D0D0DA0BDA1BDA2BDA55
:101F90004BDA5BDA6BDA7B324394205393DF75962E
:101FA000FF75950043B2C053B13F43B4A053B35F34
:101FB000E47E34FE507E24007E7A1BB074247E348E
:101FC000FE517A1BB0E47E34FE537A1BB022742A91
:101FD0001201DCE4120003E4120003740112000396
:101FE0007440120003742B1201DCE4120003E412AB
:101FF0000003E412000374F0120003742C1201DCDD
:10200000C285227A3701297E34012A7E2400007E8F
:102010001B307E34012B7E2400007A1B307E34017D
:10202000297E2400007E1B307E34012C7E2400009B
:102030007A1B307E37012B221221B97F016C006C94
:10204000337E3440007E2400EFBF01781E122362ED
:1020500020E1181223EE1221B9BE34401478077E15
:102060003400020223F874020200BB22740E7E7058
:102070000112232B74111222EF7C6B30E5087411CE
:102080007E704012232B7CB630E20774116C7712FD
:10209000232BC202227EB30012B4041B7EB30008BD
:1020A000B401147EB3000B700E7EB3000D70087E79
:1020B00037000E4D3368030223B40223C27E34FE80
:1020C000547E24007E7A1BB074857E34FE527A1BC7
:1020D000B07E34FE537E24007E7E1BB030E0F2E4FE
:1020E0007A1BB022740E7E700212232B74111222FE
:1020F000EF7C6B30E50874117E704012232B7CB6A8
:1021000030E20774116C7702232B227EB30012B4E5
:1021100004097EB30008BEB0A168030223B47E1890
:10212000016F7A1F00167E37000E7A3700140223E3
:10213000857EB30012B404097EB30008BEB02168E6
:10214000030223B47E18016F7A1F00167E37000E3B
:102150007A3700140223A67E730156BE73015568B8
:10216000F67EA301557CBA047AB301550A3A2E349F
:1021700001007A71827A6183E0227C9B74161222BC
:10218000EF7C7B7C8B800A7CB91222EF7A0BB00B40
:10219000147C671B70A5BE00EE7CB8228012000084
:1021A000000000000000000000000000000000002F
:1021B0007D231B344D2278E6229F117A1F012D7456
:1021C0009F7E14012E7E0400007E3400031212CB89
:1021D0007E1F012D22CA3B7F311223F374207F130F
:1021E00012000E3005077E3400641223E1DA3B2230
:1021F000CA3B7F311223F374527F1312000E300555
:10220000077E3400641223E1DA3B22CA3B7F31129D
:1022100023F374D87F1312000E3005077E34006458
:102220001223E1DA3B22D2857E3400321222C2C26E
:10223000C77E3400961222C2D2C77E3400320222F8
:10224000C27C677F707C5B800A7CB57E7B700BF400
:1022500012232B7C761B60A5BF00EE227EB3000903
:1022600024DF680A14680A0BB178090221310221BF
:102270000B0222D90223B4CAB87EB3001C047AB37D
:10228000001CBEB0644007E47AB3001CD203DAB885
:10229000327CA77C7B7F700A5A2E5400207F071265
:1022A000224174117E700102232BA9C7AF740E7EE8
:1022B000700112232B74146C7712232BC200A9D740
:1022C000AF227D237E341A0A7D131B147D3178F8EA
:1022D0007D121B147D2178EC227EB30012B4040918
:1022E0007EB30008BEB02168030223B40223C27C7F
:1022F000ABE5FC20E7FB7CBA4480F5FCE5FC20E77D
:10230000FBE5EC227D1380077E3403E812219C7DDF
:10231000011B144D0078F1221223F374C7121B68BD
:102320003005077E3400640223E1227CA77C7BE534
:10233000FC20E7FB7CB7547FF5FC7AA1EC22740506
:102340007E0801347E3400011212CB7EB3013422A8
:1023500074157E08012D7E3400011212CB7EB3016C
:102360002D2274357E08012D7E3400011212CB7EA1
:10237000B3012D22438E805389F0758AC0758C631A
:10238000D28CD2A92274037AB3001374117E7040E8
:1023900012232B021CAF121BE19F007E3424377ED8
:1023A0002400FF02020E74047AB3001374117E70CD
:1023B0004002232B74057AB3001374117E706002FF
:1023C000232BE47AB3001374117E704802232BE4AC
:1023D0007AB301557AB30156227EB30012B404F9E0
:1023E0002212233E20E0FA221219640223CF7450F5
:1023F000021B687406021B68740102150B0223B4E9
:102400000223B40223B4222830290000040157001B
:10241000FF242E0004015B000000000004015F00A7
:10242000000000000100110000004149530040532A
:09243000544349535023003000CD
:00000001FF
