:03000000020100FA
:0300D3000203C164
:1001000075E90075EA0043BA80759300759400752F
:10011000910075920075950075960075B10075B2E5
:100120000075B30075B40075C90075CA0075CB00C1
:1001300075CC0075E10075E2007581D075D00012B4
:10014000033BD2A712042CD2AF753300741E1201E8
:10015000DB120210E53360F47538007E340156126C
:1001600002897E3400AB1202C67E34001512028969
:10017000740012030374FF120303E533120303E553
:1001800033F4120303E538BEB0385011C374389508
:1001900038F538131313541F25381201DB741F125E
:1001A00001DBE530601F7E3401561202897E340087
:1001B000561202C67E34001512028974601201DBE9
:1001C00012021080DD7599533099FDC299853399DB
:1001D0003099FDC29975330002014CC002C003C0C2
:1001E00004A5FC7E1417701B1478FCA5DCF5D00464
:1001F000D003D0022200010200030000000400002E
:100200000000000000C0037E303CA5DBFDD00322CF
:10021000C006C0077E61317580F0120205E580548A
:10022000F0F53175800F120205E580540F4531F568
:10023000316331FFA5EEB531487E6130853130E55F
:1002400030603BA5EE600FA5EEB530350532E532E6
:10025000B4142E753212E530C4540F9001F593A5F5
:10026000FE601EE530540F93A5FF6015A5EE25E056
:1002700025E0A5FEA5EFA52E240CF53380037532ED
:10028000007580FFD007D006227A3536C200740090
:100290007E34FECD7E24007E7A1BB074607E34FEF8
:1002A000CB7E24007E7A1BB074707E34FECD7E241B
:1002B000007E7A1BB074107E34FEC47E24007E7AE9
:1002C0001BB03000FD227A3536C20074007E34FE49
:1002D000CD7E24007E7A1BB074407E34FECB7E241B
:1002E000007E7A1BB074707E34FECD7E24007E7A50
:1002F0001BB074107E34FEC47E24007E7A1BB030A6
:1003000000FD22C002C0037E2008A5FBA5EB30E063
:100310000D7E34003F1202C60538053880097E3450
:1003200000151202C605387E340015120289A5EBAD
:1003300003A5FBA5DAD6D003D0022274007E34FEDA
:10034000CD7E24007E7A1BB074607E34FECB7E248A
:10035000007E7A1BB074027E34FED27E24007E7A48
:100360001BB074777E34FED37E24007E7A1BB0747B
:10037000007E34FEDB7E24007E7A1BB074D27E3495
:10038000FEDC7E24007E7A1BB074807E34FEB17E5B
:1003900024007E7A1BB074807E34FEB27E24007E00
:1003A0007A1BB074807E34FEDD7E24007E7A1BB022
:1003B0007E34FEC07E24007E7E1BB044817A1BB05A
:1003C00022C0D0C0E0CA48CA58CA68CA787E34FE83
:1003D000C57E24007E7E1BB030E444E47A1BB07EF0
:1003E00035361B347A3536783674007E34FECD7E51
:1003F00024007E7A1BB074407E34FECB7E24007EC7
:100400007A1BB074707E34FECD7E24007E7A1BB0E1
:1004100074007E34FEC47E24007E7A1BB0D200DAE3
:1004200078DA68DA58DA48D0E0D0D032759850439C
:100430008E40538EFE53890F758BCC758DFFC2ABEA
:09044000D28E53A23F43A2002218
:00000001FF
